:100000000C945E000C9486000C9486000C94860080
:100010000C9486000C9486000C9486000C94860048
:100020000C9486000C9486000C9486000C94860038
:100030000C9486000C9486000C9486000C94860028
:100040000C9485030C9486000C9453030C942D039C
:100050000C9486000C9486000C9486000C94860008
:100060000C9486000C9486000000000024002700F9
:100070002A0000000000250028002B0004040404CE
:100080000404040402020202020203030303030342
:10009000010204081020408001020408102001021F
:1000A00004081020000000080002010000030407FB
:1000B0000000000000000000CF03AE0611241FBEA8
:1000C000CFEFD8E0DEBFCDBF21E0AAE3B1E001C0B1
:1000D0001D92A23FB207E1F711E0A0E0B1E0E8E92C
:1000E000F2E102C005900D92AA33B107D9F710E0F2
:1000F000CDE5D0E004C02197FE010E941E07CC355B
:10010000D107C9F70E9401040C943F090C94000028
:100110000895AF92BF92CF92DF92EF92FF920F932A
:100120001F93CF93DF936C017B018B01040F151F8D
:10013000EB015E01AE18BF08C017D10759F06991F5
:10014000D601ED91FC910190F081E02DC601099559
:10015000892B79F7C501DF91CF911F910F91FF9006
:10016000EF90DF90CF90BF90AF900895CF93DF9343
:10017000FC0144815581608171818BE491E00E9492
:100180008900EC0142E050E068E271E08BE491E02C
:100190000E9489008C0F9D1FDF91CF910895FC0173
:1001A000538D448D252F30E0842F90E0821B930BDC
:1001B000541710F0CF96089501970895FC01918D82
:1001C000828D981761F0A28DAE0FBF2FB11D5D9685
:1001D0008C91928D9F5F9F73928F90E008958FEF27
:1001E0009FEF08952FB7F8948091470190914801AF
:1001F000A0914901B0914A012FBF80935301909380
:100200005401A0935501B09356018BE491E00E94F4
:10021000DE0097FF26C02FB7F89480914701909198
:100220004801A0914901B0914A012FBF409153016B
:10023000509154016091550170915601841B950BAA
:10024000A60BB70B40914F015091500160915101A5
:100250007091520184179507A607B707B0F28FEF88
:100260009FEF0895FC01918D828D981731F0828D5A
:10027000E80FF11D858D90E008958FEF9FEF0895B1
:10028000FC01918D228D892F90E0805C9F4F821B15
:1002900091098F73992708958BE491E00E944001A2
:1002A00021E0892B09F420E0822F089580E090E07E
:1002B000892B29F00E944C0181110C9400000895B3
:1002C000FC01A48DA80FB92FB11DA35ABF4F2C91CB
:1002D000848D90E001968F739927848FA689B789C2
:1002E0002C93A089B1898C91837080648C93938DB9
:1002F000848D981306C00288F389E02D80818F7D5C
:1003000080830895EF92FF920F931F93CF93DF9313
:10031000EC0181E0888F9B8D8C8D98131AC0E88941
:10032000F989808185FF15C09FB7F894EE89FF8910
:100330006083E889F98980818370806480839FBFAE
:1003400081E090E0DF91CF911F910F91FF90EF90AE
:100350000895F62E0B8D10E00F5F1F4F0F731127BE
:10036000E02E8C8D8E110CC00FB607FCFACFE889F9
:10037000F989808185FFF5CFCE010E946001F1CF20
:10038000EB8DEC0FFD2FF11DE35AFF4FF0829FB76D
:10039000F8940B8FEA89FB8980818062CFCFCF935D
:1003A000DF93EC01888D8823B9F0AA89BB89E8899D
:1003B000F9898C9185FD03C0808186FD0DC00FB643
:1003C00007FCF7CF8C9185FFF2CF808185FFEDCFC1
:1003D000CE010E946001E9CFDF91CF9108953FB730
:1003E000F89480913B0190913C01A0913D01B09126
:1003F0003E0126B5A89B05C02F3F19F00196A11D0F
:10040000B11D3FBFBA2FA92F982F8827BC01CD015E
:10041000620F711D811D911D42E0660F771F881FBD
:10042000991F4A95D1F70895AF92BF92CF92DF926C
:10043000EF92FF920F931F93CF93DF936C01EB0129
:10044000FC01248135812115310569F18091EC0190
:100450009091ED01009739F18217930720F1681709
:10046000790710F0EC0121970091E8011091E90162
:10047000C801AA24AA94BB24BA947801EC0EFD1EEC
:10048000E816F906A0F0F601608171810E94250945
:10049000009769F09C01201B310BC217D30708F0AD
:1004A00059010196EDCFAA24AA94BB24BA94C501A0
:1004B000DF91CF911F910F91FF90EF90DF90CF9040
:1004C000BF90AF900895CF93DF93EC01888199811D
:1004D000009711F00E94C007198218821D821C82A9
:1004E0001B821A82DF91CF910895FC018081918156
:1004F000009711F00C94C00708950F931F93CF93AA
:10050000DF93EC0188819981009759F02A813B8122
:100510002617370730F081E0DF91CF911F910F91BF
:1005200008958B016F5F7F4F0E944908009759F033
:10053000998388831B830A832C813D81232B59F760
:10054000FC011082E8CF80E0E7CFEF92FF920F939B
:100550001F93CF93DF938C017B01EB010990002067
:10056000E9F72197C61BD70BBE010E947D028111BE
:1005700009C0C801DF91CF911F910F91FF90EF90BB
:100580000C946302F801D583C483B7018081918103
:10059000DF91CF911F910F91FF90EF900C940F0975
:1005A000EF92FF920F931F93CF93DF936115710525
:1005B00041F480E0DF91CF911F910F91FF90EF9078
:1005C000089541155105B1F07B01EC010C811D81AD
:1005D000040F151FB8010E947D02882351F3288162
:1005E00039818C819D81B701820F931F0E940F0971
:1005F0001D830C8381E0DECFEF92FF920F931F9358
:10060000CF93DF93EC017B01198218821B821A823F
:100610001D821C82FB0101900020E9F731978F01B8
:10062000061B170BB8010E947D02811109C0CE0183
:10063000DF91CF911F910F91FF90EF900C94630287
:100640001D830C83B70188819981DF91CF911F9120
:100650000F91FF90EF900C940F091F920F920FB61D
:100660000F9211242F933F934F935F936F937F9338
:100670008F939F93AF93BF93EF93FF938BE491E09E
:100680000E946001FF91EF91BF91AF919F918F9177
:100690007F916F915F914F913F912F910F900FBE7E
:1006A0000F901F9018951F920F920FB60F92112462
:1006B0002F938F939F93EF93FF93E0915B01F091C2
:1006C0005C018081E0916101F091620182FD1BC0BB
:1006D0009081809164018F5F8F73209165018217F3
:1006E00041F0E0916401F0E0E55BFE4F958F80936F
:1006F0006401FF91EF919F918F912F910F900FBE09
:100700000F901F9018958081F4CF1F920F920FB613
:100710000F9211242F933F938F939F93AF93BF9387
:100720008091470190914801A0914901B0914A01FF
:1007300030913A0123E0230F2D3758F50196A11D82
:10074000B11D20933A018093470190934801A093F3
:100750004901B0934A0180913B0190913C01A091E5
:100760003D01B0913E010196A11DB11D80933B0159
:1007700090933C01A0933D01B0933E01BF91AF9196
:100780009F918F913F912F910F900FBE0F901F90CF
:10079000189526E8230F0296A11DB11DD2CFEBE4D8
:1007A000F1E01382128288EE93E0A0E0B0E084834F
:1007B0009583A683B7838AE191E09183808385EC5A
:1007C00090E09587848784EC90E09787868780EC1B
:1007D00090E0918B808B81EC90E0938B828B82EC0C
:1007E00090E0958B848B86EC90E0978B868B118EB6
:1007F000128E138E148E6AE271E088EE91E00C94F2
:10080000FC02CF93DF93CDB7DEB7A4970FB6F89471
:10081000DEBF0FBECDBF789484B5826084BD84B541
:10082000816084BD85B5826085BD85B5816085BDEB
:1008300080916E00816080936E00109281008091A3
:10084000810082608093810080918100816080932B
:100850008100809180008160809380008091B10050
:1008600084608093B1008091B00081608093B0007B
:1008700080917A00846080937A0080917A0082600F
:1008800080937A0080917A00816080937A008091D1
:100890007A00806880937A001092C10026E131E0EE
:1008A000A6E0B1E08D919D919927FC01E057FF4FA3
:1008B000649184589F4FFC0184918823A1F090E0BB
:1008C000880F991FFC01E859FF4F45915491FC0195
:1008D000EE58FF4F859194918FB7F894FA0190816B
:1008E000962B90838FBF2A173B07E1F6E0915B01BF
:1008F000F0915C0182E08083E0915701F091580112
:100900001082E0915901F0915A018FEC808310928E
:100910006301E0915F01F091600186E08083E091E6
:100920005D01F0915E01808180618083E0915D01D5
:10093000F0915E01808188608083E0915D01F0919B
:100940005E01808180688083E0915D01F0915E01AD
:1009500080818F7D80838AE090E0A0E0B0E080938A
:100960004F0190935001A0935101B09352016AE25C
:1009700071E088EE91E00E94A50260E0A62E60E0A2
:10098000B62E8BE491E00E944001181619060CF077
:100990006AC16AE271E0CE0101960E94FC020E94E7
:1009A000F20097FD0CC08B8B1C8A41E050E0BE0129
:1009B0006D5E7F4FCE0101960E94D002F0CF4D8137
:1009C0005E8169817A8188EE91E00E94D002CE0139
:1009D00001960E9475026BE271E0CE0101960E94C1
:1009E000FC026091EC017091ED018D819E81681B8C
:1009F000790BCE0101960E9414027C01CE01019672
:100A00000E9475026DE271E0CE0101960E94FC0227
:100A10006091EC017091ED018D819E81681B790BD5
:100A2000CE0101960E9414026C01CE0101960E9433
:100A300075028601FFEFEF1AFF0ACE14DF0428F4D7
:100A40009E2D8F2D7601092F182F6AE271E0CE01BD
:100A50004F960E94FC02C090EC01D090ED01EC1486
:100A6000FD0410F50C151D0508F46801E091E8017E
:100A7000F091E901EC0DFD1D108110826091E801FB
:100A80007091E9016E0D7F1DCE014F9661157105C4
:100A900009F419C10E94A5028091E8019091E90131
:100AA000C80ED91EF6011083CE014F960E94B600E3
:100AB0000BA11CA10115110509F008C110923F01FD
:100AC0006AE271E0CE0149960E94FC024FE3E42EF7
:100AD00041E0F42E56E0C52E51E0D52E10E000E0A6
:100AE000F70181917F011A8219821C821B821E826A
:100AF0001D828B8B1C8ABE016D5E7F4FCE010196DD
:100B00000E94A502898D9A8D009709F4F2C069812F
:100B10007A816115710509F4EAC04B8D5C8D2D81D8
:100B20003E814217530708F4E2C00E940F098D81ED
:100B30009E819E8F8D8F1E821D82CE0101960E9406
:100B400075021C8A1B8A1E8A1D8A188E1F8A4AE01B
:100B5000BE016F5F7F4FC8010E94B206BE016F5F8A
:100B60007F4FCE0143960E94A5026FE271E0CE0155
:100B700001960E94FC024F89588D6B897C89CE01B9
:100B800001960E94D002811104C0CE0101960E94FC
:100B9000630245E050E064E371E0CE0101960E94FB
:100BA000D002811104C0CE0101960E9463024D8DD6
:100BB0005E8D698D7A8DCE0101960E94D0028111E1
:100BC00004C0CE0101960E946302CE0101960E94EC
:100BD000B600CE0101960E947502CE0143960E9496
:100BE0007502F601819191916F019927FC01EC55F5
:100BF000FF4F3491FC01E057FF4F2491FC01E45872
:100C0000FF4FE491EE2309F1D70111979C91332313
:100C100059F0333009F489C008F07CC0313009F450
:100C20008AC0323009F48BC0F0E0EE0FFF1FEE589F
:100C3000FF4FA591B4918FB7F894EC91903309F0E0
:100C40008BC020952E232C938FBF0F5F1F4F083032
:100C5000110509F045CFCE0149960E947502CE01DB
:100C60004F960E9475020E94EF016B017C0184E6A1
:100C7000482E512C612C712C0E94EF016C197D09BA
:100C80008E099F09683E734081059105A8F3F1E044
:100C90004F1A51086108710828EEC20E23E0D21ED7
:100CA000E11CF11C411451046104710429F7A114E1
:100CB000B10409F466CE0E944C01882309F461CE88
:100CC0000E9400005ECE0E946302E6CE083011054D
:100CD00010F008E010E06F8D78A1A8018FE391E09B
:100CE0000E941609F801E15CFE4F1082E9CE0E94D5
:100CF000C00789819A819A8F898F8B819C819C8F73
:100D00008B8F8D819E819E8F8D8F1A8219821C827E
:100D10001B8211CF3730B1F03830D1F0343009F0C8
:100D200083CF809180008F7D03C0809180008F777A
:100D30008093800079CF84B58F7784BD75CF84B5DB
:100D40008F7DFBCF8091B0008F778093B0006CCF08
:100D50008091B0008F7DF9CF2E2B75CF88EE91E07A
:100D60000C947502BB274A3031F4992322F4BDE27A
:100D7000909581959F4F0C94BE06BB27FB0155278C
:100D8000AA27880F991FAA1FA41710F0A41B8395E8
:100D90005051B9F7A05DAA3308F0A95DA19300975F
:100DA00079F7B111B1931192CB010C94D706DC0104
:100DB000FC01672F71917723E1F7329704C07C9192
:100DC0006D9370836291AE17BF07C8F308952F9299
:100DD0003F924F925F926F927F928F929F92AF92CB
:100DE000BF92CF92DF92EF92FF920F931F93CF9318
:100DF000DF93CDB7DEB7CA1BDB0B0FB6F894DEBFAF
:100E00000FBECDBF09942A88398848885F846E84D4
:100E10007D848C849B84AA84B984C884DF80EE801E
:100E2000FD800C811B81AA81B981CE0FD11D0FB627
:100E3000F894DEBF0FBECDBFED010895EE0FFF1F8A
:100E40000590F491E02D09940F931F93CF93DF93B6
:100E50008230910510F482E090E0E091F001F09191
:100E6000F10130E020E0B0E0A0E0309799F42115E6
:100E7000310509F44AC0281B390B24303105D8F557
:100E80008A819B816115710589F1FB0193838283BE
:100E9000FE0111C040815181028113814817590719
:100EA000E0F04817590799F4109761F012960C93E7
:100EB000129713961C933296CF01DF91CF911F9119
:100EC0000F9108950093F0011093F101F4CF2115D3
:100ED000310551F04217530738F0A901DB019A019F
:100EE000BD01DF01F801C1CFEF01F9CF9093F1010E
:100EF0008093F001CDCFFE01E20FF31F8193919318
:100F00002250310939832883D7CF2091EE013091C7
:100F1000EF01232B41F42091020130910301309322
:100F2000EF012093EE012091000130910101211584
:100F3000310541F42DB73EB74091040150910501B0
:100F4000241B350BE091EE01F091EF01E217F3075E
:100F5000A0F42E1B3F0B2817390778F0AC014E5F29
:100F60005F4F2417350748F04E0F5F1F5093EF0176
:100F70004093EE01819391939FCFF0E0E0E09CCF0E
:100F8000CF93DF930097E9F0FC013297138212822E
:100F9000A091F001B091F101ED0130E020E0109757
:100FA000A1F420813181820F931F2091EE013091B5
:100FB000EF012817390709F061C0F093EF01E093C2
:100FC000EE01DF91CF910895EA01CE17DF07E8F532
:100FD0004A815B819E0141155105B1F7E901FB830F
:100FE000EA8349915991C40FD51FEC17FD0761F4AD
:100FF000808191810296840F951FE90199838883EE
:10100000828193819B838A83F0E0E0E012968D9148
:101010009C9113970097B9F52D913C911197CD01B3
:101020000296820F931F2091EE013091EF01281755
:10103000390739F6309751F51092F1011092F0010D
:10104000B093EF01A093EE01BCCFD383C283408164
:101050005181840F951FC817D90761F44E5F5F4F08
:1010600088819981480F591F518340838A819B81D0
:10107000938382832115310509F0B0CFF093F101FC
:10108000E093F0019ECFFD01DC01C0CF13821282FC
:10109000D7CFB0E0A0E0EFE4F8E00C94E9068C01D3
:1010A000009751F4CB010E9424078C01C801CDB7F1
:1010B000DEB7E0E10C940507FC01E60FF71F9C0189
:1010C00022503109E217F30708F49DC0D901CD91F0
:1010D000DC911197C617D70798F0C530D10530F3CA
:1010E000CE0104978617970708F3C61BD70B2297E4
:1010F000C193D1936D937C93CF010E94C007D6CF4B
:101100005B01AC1ABD0A4C018C0E9D1EA091F00132
:10111000B091F101512C412CF12CE12C109731F5BB
:101120008091EE019091EF018815990509F05CC05E
:101130004616570608F058C08091000190910101B1
:10114000009741F48DB79EB740910401509105017D
:10115000841B950BE817F90708F055C0F093EF01D1
:10116000E093EE01F90171836083A0CF8D919C9192
:10117000119712966C90129713967C901397A8155E
:10118000B90559F56C0142E0C40ED11CCA14DB0448
:1011900020F1AC014A195B09DA011296159780F02B
:1011A0006282738251834083D9016D937C93E114F1
:1011B000F10471F0D7011396FC93EE93129776CF5A
:1011C00022968C0F9D1FF90191838083F301EFCF4D
:1011D000F093F101E093F00169CF4816590608F445
:1011E0002C017D01D3019ACFCB010E9424077C0101
:1011F000009749F0AE01B8010E940609C8010E949B
:10120000C007870153CF10E000E050CFFB01DC01A5
:1012100002C001900D9241505040D8F70895FB0153
:10122000DC0101900D920020E1F70895FB01DC0143
:101230004150504048F001900D920020C9F701C084
:101240001D9241505040E0F70895FB015191552304
:10125000A9F0BF01DC014D9145174111E1F759F4A7
:10126000CD010190002049F04D9140154111C9F385
:10127000FB014111EFCF81E090E00197089510E06C
:10128000CDE5D0E004C0FE010E941E072196CE35B8
:08129000D107C9F7F894FFCF64
:101298000000F201800006000700080009000A00AB
:1012A8000B000C000D000000000082018900CF0037
:1012B800CF014001DE0032010D0A0041004700491C
:0A12C800743A20002020563A20005E
:00000001FF
