:100000000C9462000C948A000C948A000C948A0070
:100010000C948A000C948A000C948A000C948A0038
:100020000C948A000C948A000C948A000C948A0028
:100030000C948A000C948A000C948A000C948A0018
:100040000C9449030C948A000C9417030C94F1024D
:100050000C948A000C948A000C948A000C948A00F8
:100060000C948A000C948A000000000025002800EF
:100070002B0000000000240027002A0000000000E0
:1000800023002600290004040404040404040202DA
:100090000202020203030303030301020408102007
:1000A0004080010204081020010204081020000012
:1000B0000008000201000003040700000000000027
:1000C0000000D90411241FBECFEFD8E0DEBFCDBFA2
:1000D00021E0A0E4B1E001C01D92AC3EB207E1F71F
:1000E00011E0A0E0B1E0E8EDFEE002C005900D9265
:1000F000A034B107D9F710E0C2E6D0E004C02197E0
:10010000FE010E947205C136D107C9F70E94930310
:100110000C946A070C940000AF92BF92CF92DF92CA
:10012000EF92FF920F931F93CF93DF936C017B01AC
:100130008B01040F151FEB015E01AE18BF08C0173D
:10014000D10759F06991D601ED91FC910190F081B0
:10015000E02DC6010995892B79F7C501DF91CF9173
:100160001F910F91FF90EF90DF90CF90BF90AF90D5
:100170000895FC01538D448D252F30E0842F90E0AD
:10018000821B930B541710F0CF9608950197089592
:10019000FC01918D828D981761F0A28DAE0FBF2F5B
:1001A000B11D5D968C91928D9F5F9F73928F90E0B1
:1001B00008958FEF9FEF0895FC01918D828D981720
:1001C00031F0828DE80FF11D858D90E008958FEF5D
:1001D0009FEF0895FC01918D228D892F90E0805C26
:1001E0009F4F821B91098F739927089589E491E0AD
:1001F0000E94EA0021E0892B09F420E0822F089573
:1002000080E090E0892B29F00E94F60081110C9487
:1002100000000895FC01A48DA80FB92FB11DA35AA9
:10022000BF4F2C91848D90E001968F739927848F16
:10023000A689B7892C93A089B1898C918370806439
:100240008C93938D848D981306C00288F389E02DDA
:1002500080818F7D80830895EF92FF920F931F938B
:10026000CF93DF93EC0181E0888F9B8D8C8D981369
:100270001AC0E889F989808185FF15C09FB7F89475
:10028000EE89FF896083E889F989808183708064C1
:1002900080839FBF81E090E0DF91CF911F910F910C
:1002A000FF90EF900895F62E0B8D10E00F5F1F4F1B
:1002B0000F731127E02E8C8D8E110CC00FB607FC2A
:1002C000FACFE889F989808185FFF5CFCE010E94B8
:1002D0000A01F1CFEB8DEC0FFD2FF11DE35AFF4F1B
:1002E000F0829FB7F8940B8FEA89FB898081806246
:1002F000CFCFCF93DF93EC01888D8823B9F0AA8903
:10030000BB89E889F9898C9185FD03C0808186FDD0
:100310000DC00FB607FCF7CF8C9185FFF2CF80811F
:1003200085FFEDCFCE010E940A01E9CFDF91CF9189
:10033000089590E0FC01E255FF4F2491FC01E65640
:10034000FF4F3491FC01EA57FF4FE491EE23C1F1D6
:10035000222339F02330E9F090F4213001F12230EA
:1003600011F1F0E0EE0FFF1FE458FF4FA591B4919B
:10037000EC91E32381E090E029F580E008952730B7
:10038000A9F02830C9F0243061F7809180008F7D7A
:1003900003C0809180008F7780938000E2CF84B586
:1003A0008F7784BDDECF84B58F7DFBCF8091B00089
:1003B0008F778093B000D5CF8091B0008F7DF9CF3B
:1003C00080E090E00895CF93DF9390E0FC01E65643
:1003D000FF4F24918A579F4FFC0184918823D1F0CD
:1003E00090E0880F991FFC01EE58FF4FA591B49142
:1003F000FC01E859FF4FC591D491623071F49FB769
:10040000F8943C91822F809583238C93E8812E2B46
:1004100028839FBFDF91CF9108958FB7F894EC9117
:100420002E2B2C938FBFF6CF3FB7F89480914501C8
:1004300090914601A0914701B091480126B5A89B33
:1004400005C02F3F19F00196A11DB11D3FBFBA2F66
:10045000A92F982F8827BC01CD01620F711D811D26
:10046000911D42E0660F771F881F991F4A95D1F7AB
:1004700008950F931F93CF93DF93EC0188819981A7
:10048000009759F02A813B812617370730F081E029
:10049000DF91CF911F910F9108958B016F5F7F4F77
:1004A0000E949D06009759F0998388831B830A83D5
:1004B0002C813D81232B59F7FC011082E8CF80E08D
:1004C000E7CFEF92FF920F931F93CF93DF936115C6
:1004D000710541F480E0DF91CF911F910F91FF9062
:1004E000EF90089541155105B1F07B01EC010C81AD
:1004F0001D81040F151FB8010E943902882351F392
:10050000288139818C819D81B701820F931F0E94C0
:1005100063071D830C8381E0DECFCF93DF93EC0173
:1005200088819981009711F00E941406198218821F
:100530001D821C821B821A82DF91CF910895CF9277
:10054000DF92EF92FF920F931F93CF93DF93CDB77C
:10055000DEB762970FB6F894DEBF0FBECDBF8C0139
:10056000CB01F8011182108213821282158214824B
:100570004AE09E012F5F3F4F6901B9010E940605C5
:10058000F60101900020E9F731977F01EC18FD0892
:10059000B701C8010E943902811112C0C8010E942E
:1005A0008D0262960FB6F894DEBF0FBECDBFDF910D
:1005B000CF911F910F91FF90EF90DF90CF90089512
:1005C000F801F582E482B601808191810E9463077F
:1005D000E8CFFC0180819181009711F00C94140602
:1005E00008951F920F920FB60F9211242F933F93ED
:1005F0004F935F936F937F938F939F93AF93BF932B
:10060000EF93FF9389E491E00E940A01FF91EF913B
:10061000BF91AF919F918F917F916F915F914F911A
:100620003F912F910F900FBE0F901F9018951F9222
:100630000F920FB60F9211242F938F939F93EF93E6
:10064000FF93E0915901F0915A018081E0915F019F
:10065000F091600182FD1BC09081809162018F5FEB
:100660008F7320916301821741F0E0916201F0E005
:10067000E75BFE4F958F80936201FF91EF919F9111
:100680008F912F910F900FBE0F901F901895808122
:10069000F4CF1F920F920FB60F9211242F933F9316
:1006A0008F939F93AF93BF938091410190914201AB
:1006B000A0914301B09144013091400123E0230F08
:1006C0002D3758F50196A11DB11D2093400180934F
:1006D000410190934201A0934301B0934401809162
:1006E000450190914601A0914701B09148010196C2
:1006F000A11DB11D8093450190934601A093470130
:10070000B0934801BF91AF919F918F913F912F91ED
:100710000F900FBE0F901F90189526E8230F02969A
:10072000A11DB11DD2CFCF93DF93CDB7DEB76297B6
:100730000FB6F894DEBF0FBECDBF789484B582604B
:1007400084BD84B5816084BD85B5826085BD85B575
:10075000816085BD80916E00816080936E001092F3
:10076000810080918100826080938100809181006E
:1007700081608093810080918000816080938000FF
:100780008091B10084608093B1008091B00081605D
:100790008093B00080917A00846080937A00809189
:1007A0007A00826080937A0080917A0081608093E1
:1007B0007A0080917A00806880937A001092C1005C
:1007C00062E082E00E94E30162E083E00E94E301D4
:1007D00008E111E098E2E92E91E0F92EF80180811C
:1007E0000E5F1F4F61E00E94E301E016F106B1F7D2
:1007F000E0915901F0915A0182E08083E091550126
:10080000F09156011082E0915701F09158018FEC60
:10081000808310926101E0915D01F0915E0186E0BC
:100820008083E0915B01F0915C0180818061808335
:10083000E0915B01F0915C01808188608083E091B0
:100840005B01F0915C01808180688083E0915B01B5
:10085000F0915C0180818F7D808300E010E082E078
:100860000E9499019093E7018093E60183E00E9442
:100870009901BC01CE0101960E949F026091E601A0
:100880007091E701CE0107960E949F021E861D8689
:10089000188A1F861A8A198A6AE070E0CE010D96BE
:1008A0000E94390281117AC0CE010D960E948D02FC
:1008B0004B855C856F817885CE010D960E94610223
:1008C000811104C0CE010D960E948D0249E050E0D6
:1008D00063E371E0CE010D960E946102811104C0B4
:1008E000CE010D960E948D024D815E8169817A81D3
:1008F000CE010D960E946102811104C0CE010D96B9
:100900000E948D0249895A896D857E8589E491E02E
:100910000E948C0042E050E06DE371E089E491E0D8
:100920000E948C00CE010D960E94E902CE0107962E
:100930000E94E902CE0101960E94E9020E9414027F
:100940004B015C0184E6C82ED12CE12CF12C0E94D5
:100950001402681979098A099B09683E7340810568
:100960009105A8F3F1E0CF1AD108E108F10828EECB
:10097000820E23E0921EA11CB11CC114D104E1041B
:10098000F10429F70115110509F469CF0E94F60059
:10099000882309F464CF0E94000061CF8AE090E0D0
:1009A0009A8B898B68E271E08D859E850E94630732
:1009B0007FCFE9E4F1E01382128288EE93E0A0E0B9
:1009C000B0E084839583A683B7838AE091E0918326
:1009D000808385EC90E09587848784EC90E097870E
:1009E000868780EC90E0918B808B81EC90E0938BFC
:1009F000828B82EC90E0958B848B86EC90E0978BD9
:100A0000868B118E128E138E148E0895BB274A305A
:100A100031F4992322F4BDE2909581959F4F0C9477
:100A20001205BB27FB015527AA27880F991FAA1F6C
:100A3000A41710F0A41B83955051B9F7A05DAA33F9
:100A400008F0A95DA193009779F7B111B1931192C4
:100A5000CB010C942B05DC01FC01672F71917723EE
:100A6000E1F7329704C07C916D9370836291AE1769
:100A7000BF07C8F308952F923F924F925F926F92F3
:100A80007F928F929F92AF92BF92CF92DF92EF921E
:100A9000FF920F931F93CF93DF93CDB7DEB7CA1B9F
:100AA000DB0B0FB6F894DEBF0FBECDBF09942A88CA
:100AB000398848885F846E847D848C849B84AA8472
:100AC000B984C884DF80EE80FD800C811B81AA81FF
:100AD000B981CE0FD11D0FB6F894DEBF0FBECDBFCA
:100AE000ED010895EE0FFF1F0590F491E02D09949C
:100AF0000F931F93CF93DF938230910510F482E020
:100B000090E0E091EA01F091EB0130E020E0B0E00C
:100B1000A0E0309799F42115310509F44AC0281B4B
:100B2000390B24303105D8F58A819B816115710517
:100B300089F1FB0193838283FE0111C040815181C1
:100B40000281138148175907E0F04817590799F4B3
:100B5000109761F012960C93129713961C9332968D
:100B6000CF01DF91CF911F910F9108950093EA017A
:100B70001093EB01F4CF2115310551F042175307C3
:100B800038F0A901DB019A01BD01DF01F801C1CFF5
:100B9000EF01F9CF9093EB018093EA01CDCFFE01F5
:100BA000E20FF31F819391932250310939832883F7
:100BB000D7CF2091E8013091E901232B41F4209116
:100BC0000201309103013093E9012093E801209163
:100BD0000001309101012115310541F42DB73EB7D7
:100BE0004091040150910501241B350BE091E8016F
:100BF000F091E901E217F307A0F42E1B3F0B281731
:100C0000390778F0AC014E5F5F4F2417350748F085
:100C10004E0F5F1F5093E9014093E8018193919338
:100C20009FCFF0E0E0E09CCFCF93DF930097E9F017
:100C3000FC01329713821282A091EA01B091EB017C
:100C4000ED0130E020E01097A1F420813181820F86
:100C5000931F2091E8013091E9012817390709F025
:100C600061C0F093E901E093E801DF91CF9108952D
:100C7000EA01CE17DF07E8F54A815B819E01411545
:100C80005105B1F7E901FB83EA8349915991C40FFA
:100C9000D51FEC17FD0761F4808191810296840FC6
:100CA000951FE90199838883828193819B838A833D
:100CB000F0E0E0E012968D919C9113970097B9F5C2
:100CC0002D913C911197CD010296820F931F209197
:100CD000E8013091E9012817390739F6309751F5C5
:100CE0001092EB011092EA01B093E901A093E801A0
:100CF000BCCFD383C28340815181840F951FC81715
:100D0000D90761F44E5F5F4F88819981480F591F61
:100D1000518340838A819B8193838283211531058E
:100D200009F0B0CFF093EB01E093EA019ECFFD0113
:100D3000DC01C0CF13821282D7CFB0E0A0E0E3EA9B
:100D4000F6E00C943D058C01009751F4CB010E9414
:100D500078058C01C801CDB7DEB7E0E10C945905E8
:100D6000FC01E60FF71F9C0122503109E217F3073F
:100D700008F49DC0D901CD91DC911197C617D70712
:100D800098F0C530D10530F3CE0104978617970748
:100D900008F3C61BD70B2297C193D1936D937C9315
:100DA000CF010E941406D6CF5B01AC1ABD0A4C01DC
:100DB0008C0E9D1EA091EA01B091EB01512C412CAB
:100DC000F12CE12C109731F58091E8019091E90127
:100DD0008815990509F05CC04616570608F058C0FA
:100DE0008091000190910101009741F48DB79EB769
:100DF0004091040150910501841B950BE817F907F8
:100E000008F055C0F093E901E093E801F90171831E
:100E10006083A0CF8D919C91119712966C90129740
:100E200013967C901397A815B90559F56C0142E00B
:100E3000C40ED11CCA14DB0420F1AC014A195B09B1
:100E4000DA011296159780F0628273825183408393
:100E5000D9016D937C93E114F10471F0D7011396DD
:100E6000FC93EE93129776CF22968C0F9D1FF9017B
:100E700091838083F301EFCFF093EB01E093EA01DC
:100E800069CF4816590608F42C017D01D3019ACF89
:100E9000CB010E9478057C01009749F0AE01B801B2
:100EA0000E945A07C8010E941406870153CF10E020
:100EB00000E050CFFB01DC0102C001900D924150D7
:100EC0005040D8F70895FB01DC0101900D920020FD
:080ED000E1F70895F894FFCF4B
:100ED8000000EC018000000000002C018C00B9002B
:100EE8007901EA00C800DC000600070008000900D4
:100EF8000A000B000C000D0050756C7361646F7272
:100F08003A2000205377697463683A20000D0A007C
:00000001FF
