:100000000C9436000C945E000C945E000C945E0020
:100010000C945E000C945E000C945E000C945E00E8
:100020000C945E000C945E000C945E000C945E00D8
:100030000C945E000C945E000C945E000C945E00C8
:100040000C94A5020C945E000C9473020C944D0267
:100050000C945E000C945E000C945E000C945E00A8
:100060000C945E000C945E00EF02980511241FBEF4
:10007000CFEFD8E0DEBFCDBF22E0A8E6B1E001C0FF
:100080001D92AC31B207E1F711E0A0E0B1E0E6ED7E
:10009000F0E102C005900D92A836B107D9F710E043
:1000A000C5E3D0E004C02197FE010E946606C43378
:1000B000D107C9F70E9428030C945E080C94000035
:1000C0000895AF92BF92CF92DF92EF92FF920F937B
:1000D0001F93CF93DF936C017B018B01040F151FDE
:1000E000EB015E01AE18BF08C017D10759F0699146
:1000F000D601ED91FC910190F081E02DC6010995AA
:10010000892B79F7C501DF91CF911F910F91FF9056
:10011000EF90DF90CF90BF90AF900895FC01538D8A
:10012000448D252F30E0842F90E0821B930B5417D1
:1001300010F0CF96089501970895FC01918D828D5E
:10014000981761F0A28DAE0FBF2FB11D5D968C91F7
:10015000928D9F5F9F73928F90E008958FEF9FEF36
:1001600008952FB7F8948091710190917201A09138
:100170007301B09174012FBF80937D0190937E0134
:10018000A0937F01B093800185E791E00E949D00DC
:1001900097FF26C02FB7F89480917101909172015A
:1001A000A0917301B09174012FBF40917D015091D6
:1001B0007E0160917F0170918001841B950BA60BDD
:1001C000B70B4091790150917A0160917B01709158
:1001D0007C0184179507A607B707B0F28FEF9FEF52
:1001E0000895FC01918D828D981731F0828DE80F72
:1001F000F11D858D90E008958FEF9FEF0895FC012C
:10020000918D228D892F90E0805C9F4F821B9109F8
:100210008F739927089585E791E00E94FF0021E000
:10022000892B09F420E0822F089580E090E0892B4B
:1002300029F00E940B0181110C9400000895FC012B
:10024000A48DA80FB92FB11DA35ABF4F2C91848D37
:1002500090E001968F739927848FA689B7892C9394
:10026000A089B1898C91837080648C93938D848DE7
:10027000981306C00288F389E02D80818F7D8083EA
:100280000895EF92FF920F931F93CF93DF93EC01AA
:1002900081E0888F9B8D8C8D98131AC0E889F9892D
:1002A000808185FF15C09FB7F894EE89FF89608330
:1002B000E889F98980818370806480839FBF81E0B1
:1002C00090E0DF91CF911F910F91FF90EF900895F3
:1002D000F62E0B8D10E00F5F1F4F0F731127E02ECE
:1002E0008C8D8E110CC00FB607FCFACFE889F98906
:1002F000808185FFF5CFCE010E941F01F1CFEB8DEC
:10030000EC0FFD2FF11DE35AFF4FF0829FB7F894D9
:100310000B8FEA89FB8980818062CFCFCF93DF93F7
:10032000EC01888D8823B9F0AA89BB89E889F9890D
:100330008C9185FD03C0808186FD0DC00FB607FC42
:10034000F7CF8C9185FFF2CF808185FFEDCFCE0175
:100350000E941F01E9CFDF91CF9108953FB7F89434
:100360008091690190916A01A0916B01B0916C013B
:1003700026B5A89B05C02F3F19F00196A11DB11D00
:100380003FBFBA2FA92F982F8827BC01CD01620F3C
:10039000711D811D911D42E0660F771F881F991FF7
:1003A0004A95D1F70895FC0101900020E9F73197B3
:1003B000AF01481B590BBC0185E791E00C9461002B
:1003C000CF93DF93EC0188819981009711F00E940F
:1003D0000807198218821D821C821B821A82DF91F3
:1003E000CF910895FC0180819181009711F00C94C8
:1003F000080708950F931F93CF93DF93EC01888133
:100400009981009759F02A813B812617370730F0F0
:1004100081E0DF91CF911F910F9108958B016F5F64
:100420007F4F0E949107009759F0998388831B831F
:100430000A832C813D81232B59F7FC011082E8CFE0
:1004400080E0E7CFEF92FF920F931F93CF93DF935C
:100450008C017B01EB0109900020E9F72197C61B75
:10046000D70BBE010E94FA01811109C0C801DF91BA
:10047000CF911F910F91FF90EF900C94E001F80144
:10048000D583C483B70180819181DF91CF911F9182
:100490000F91FF90EF900C9457081F920F920FB698
:1004A0000F9211242F933F934F935F936F937F93FA
:1004B0008F939F93AF93BF93EF93FF9385E791E063
:1004C0000E941F01FF91EF91BF91AF919F918F917A
:1004D0007F916F915F914F913F912F910F900FBE40
:1004E0000F901F9018951F920F920FB60F92112424
:1004F0002F938F939F93EF93FF93E0918501F0915A
:1005000086018081E0918B01F0918C0182FD1BC0FE
:10051000908180918E018F5F8F7320918F01821760
:1005200041F0E0918E01F0E0EB58FE4F958F809303
:100530008E01FF91EF919F918F912F910F900FBEA0
:100540000F901F9018958081F4CF1F920F920FB6D5
:100550000F9211242F933F938F939F93AF93BF9349
:100560008091710190917201A0917301B091740119
:100570003091680123E0230F2D3758F50196A11D16
:10058000B11D209368018093710190937201A09333
:100590007301B09374018091690190916A01A091F7
:1005A0006B01B0916C010196A11DB11D8093690191
:1005B00090936A01A0936B01B0936C01BF91AF91CE
:1005C0009F918F913F912F910F900FBE0F901F9091
:1005D000189526E8230F0296A11DB11DD2CFE5E79D
:1005E000F1E01382128288EE93E0A0E0B0E0848311
:1005F0009583A683B7838AE091E09183808385EC1D
:1006000090E09587848784EC90E09787868780ECDC
:1006100090E0918B808B81EC90E0938B828B82ECCD
:1006200090E0958B848B86EC90E0978B868B118E77
:10063000128E138E148EE2E1F2E011821082138288
:100640001282158214826CE271E0CF010C942202B6
:10065000CF93DF93CDB7DEB7A7970FB6F894DEBF81
:100660000FBECDBF789484B5826084BD84B58160AF
:1006700084BD85B5826085BD85B5816085BD80916D
:100680006E00816080936E001092810080918100E5
:1006900082608093810080918100816080938100DD
:1006A000809180008160809380008091B10084609F
:1006B0008093B1008091B00081608093B000809100
:1006C0007A00846080937A0080917A0082608093BF
:1006D0007A0080917A00816080937A0080917A001C
:1006E000806880937A001092C100E0918501F091BA
:1006F000860182E08083E0918101F0918201108285
:10070000E0918301F09184018FEC808310928D0140
:10071000E0918901F0918A0186E08083E091870170
:10072000F0918801808180618083E0918701F09160
:100730008801808188608083E0918701F091880141
:10074000808180688083E0918701F09188018081B9
:100750008F7D80838AE090E0A0E0B0E08093790113
:1007600090937A01A0937B01B0937C018E010F5F7F
:100770001F4F2AE0822E912CA12CB12C95E0292E1E
:10078000312CE0906F01F090700128E0E216F10446
:1007900008F00AC1F701E153FC4F0C946606D70339
:1007A000E6035F040D051E058D05E6035F0488E181
:1007B00091E00E94D3018AE291E00E94D30181E09E
:1007C00090E09093700180936F01EEC085E791E017
:1007D0000E94FF00181619060CF0E6C01A82198252
:1007E0001C821B821E821D826CE271E0C8010E9485
:1007F00022020E94B10097FD1BC08AA31BA2CD80DC
:10080000DE809FEFC91AD90AB601C8010E94FA0119
:10081000882379F329813A818D819E81BE016E5DA5
:100820007F4F820F931F0E945708DE82CD82E1CF57
:100830008091120290911302009751F169817A819F
:100840006115710519F140911402509115022D8125
:100850003E8142175307D0F00E9457088D819E8138
:1008600090931702809316021E821D82C8010E9477
:10087000F20182E090E0EA94EF2809F4A2CFE7E0E9
:10088000F0E0F0937001E0936F018EC00E940807C2
:1008900089819A8190931302809312028B819C81AB
:1008A00090931502809314028D819E81909317027C
:1008B000809316021A8219821C821B82D5CF8091E6
:1008C000160290911702892B09F49FC080911202A1
:1008D00090911302FC012081222309F496C0009715
:1008E000F1F10E949C0570936E0160936D016B01A4
:1008F000770FEE08FF08F7FE36C06DE285E791E05E
:100900000E94410122273327A9012C193D094E09D4
:100910005F0919A2CE0181967C01CA01B901A50126
:1009200094010E944406605DF70162937F012115E6
:1009300031054105510589F7E114F10419F0C701AA
:100940000E94D3018AE291E00E94D30180916F015D
:10095000909170010297E9F483E090E032CF60E07B
:1009600070E0CB01C0CFA701960119A2CE018196FC
:100970007C01CA01B901A50194010E944406605D91
:10098000F70162937F01211531054105510589F772
:10099000D3CF80916D0190916E01019709F0ACC0A9
:1009A0001092700110926F010E94AE012B013C0168
:1009B00084E6C82ED12CE12CF12C0E94AE016419E2
:1009C000750986099709683E734081059105A8F36A
:1009D00091E0C91AD108E108F108E8EE4E0EE3E013
:1009E0005E1E611C711CC114D104E104F10429F7DD
:1009F00080E090E0892B09F4C4CE0E940B0188238B
:100A000009F4BFCE0E940000B9CE91E0E91AF108C6
:100A1000F0927001E0926F01C7CF80916D019091CB
:100A20006E01889F9001899F300D300D1124309305
:100A30006E0120936D01E4E0F0E023CF80916D0121
:100A400090916E011BA21AA21DA21CA21FA21EA29F
:100A50004AE0B8010E94C305F80101900020E9F7BF
:100A600031977F01E01AF10AB701CE0182960E9408
:100A7000FA01811146C0CE0182960E94E0011A82DD
:100A800019821C821B821E821D826DE271E0C801E8
:100A90000E942202CAA0DBA0C114D104D1F1EEA0B1
:100AA000FFA0E114F104A9F08D819E81E80EF91EEA
:100AB000B701C8010E94FA01882359F129813A81BE
:100AC0008D819E81B601820F931F0E945708FE827E
:100AD000ED824D815E8169817A8185E791E00E9496
:100AE00061008AE291E00E94D301C8010E94F201F4
:100AF000CE0182960E94F2013092700120926F0125
:100B000053CFFFA2EEA2B8018AA19BA10E94570871
:100B1000B6CFC8010E94E001DCCF89E391E00E94DA
:100B2000D3018AE291E00E94D30186E090E049CEB1
:100B300082E192E00C94F2011F93FC01992788272F
:100B4000BC01E89411911032E9F3193010F01E3015
:100B5000C8F31B3251F01D3249F4689406C00E945C
:100B6000CE05610F711D811D911D119110531A3019
:100B7000B0F33EF490958095709561957F4F8F4FBF
:100B80009F4F1F910895BB274A3031F4992322F4D7
:100B9000BDE2909581959F4F0C94E405592F482F05
:100BA000372F262F660F771F881F991F660F771F15
:100BB000881F991F620F731F841F951F660F771F71
:100BC000881F991F0895BB27FB015527AA27880F67
:100BD000991FAA1FA41710F0A41B83955051B9F7B1
:100BE000A05DAA3308F0A95DA193009779F7B11130
:100BF000B1931192CB010C94FD05DC01FC01672F30
:100C000071917723E1F7329704C07C916D937083E3
:100C10006291AE17BF07C8F308952F923F924F928B
:100C20005F926F927F928F929F92AF92BF92CF927C
:100C3000DF92EF92FF920F931F93CF93DF93CDB785
:100C4000DEB7CA1BDB0B0FB6F894DEBF0FBECDBFFD
:100C500009942A88398848885F846E847D848C84CE
:100C60009B84AA84B984C884DF80EE80FD800C81D7
:100C70001B81AA81B981CE0FD11D0FB6F894DEBFBA
:100C80000FBECDBFED010895A1E21A2EAA1BBB1B1A
:100C9000FD010DC0AA1FBB1FEE1FFF1FA217B30748
:100CA000E407F50720F0A21BB30BE40BF50B661F5E
:100CB000771F881F991F1A9469F760957095809522
:100CC00090959B01AC01BD01CF010895EE0FFF1F70
:100CD0000590F491E02D09940F931F93CF93DF9328
:100CE0008230910510F482E090E0E0911A02F091D8
:100CF0001B0230E020E0B0E0A0E0309799F421152D
:100D0000310509F44AC0281B390B24303105D8F5C8
:100D10008A819B816115710589F1FB01938382832F
:100D2000FE0111C04081518102811381481759078A
:100D3000E0F04817590799F4109761F012960C9358
:100D4000129713961C933296CF01DF91CF911F918A
:100D50000F91089500931A0210931B02F4CF2115EE
:100D6000310551F04217530738F0A901DB019A0110
:100D7000BD01DF01F801C1CFEF01F9CF90931B0254
:100D800080931A02CDCFFE01E20FF31F819391935E
:100D90002250310939832883D7CF2091180230910E
:100DA0001902232B41F42091020130910301309369
:100DB00019022093180220910001309101012115A0
:100DC000310541F42DB73EB7409104015091050122
:100DD000241B350BE0911802F0911902E217F3077A
:100DE000A0F42E1B3F0B2817390778F0AC014E5F9B
:100DF0005F4F2417350748F04E0F5F1F50931902BD
:100E000040931802819391939FCFF0E0E0E09CCF54
:100E1000CF93DF930097E9F0FC013297138212829F
:100E2000A0911A02B0911B02ED0130E020E0109772
:100E3000A1F420813181820F931F209118023091FB
:100E400019022817390709F061C0F0931902E093DD
:100E50001802DF91CF910895EA01CE17DF07E8F578
:100E60004A815B819E0141155105B1F7E901FB8380
:100E7000EA8349915991C40FD51FEC17FD0761F41E
:100E8000808191810296840F951FE901998388835F
:100E9000828193819B838A83F0E0E0E012968D91BA
:100EA0009C9113970097B9F52D913C911197CD0125
:100EB0000296820F931F2091180230911902281771
:100EC000390739F6309751F510921B0210921A0229
:100ED000B0931902A0931802BCCFD383C283408180
:100EE0005181840F951FC817D90761F44E5F5F4F7A
:100EF00088819981480F591F518340838A819B8142
:100F0000938382832115310509F0B0CFF0931B0242
:100F1000E0931A029ECFFD01DC01C0CF1382128242
:100F2000D7CFB0E0A0E0E7E9F7E00C940F068C0122
:100F3000009751F4CB010E946C068C01C801CDB71B
:100F4000DEB7E0E10C942B06FC01E60FF71F9C01D5
:100F500022503109E217F30708F49DC0D901CD9161
:100F6000DC911197C617D70798F0C530D10530F33B
:100F7000CE0104978617970708F3C61BD70B229755
:100F8000C193D1936D937C93CF010E940807D6CF74
:100F90005B01AC1ABD0A4C018C0E9D1EA0911A0279
:100FA000B0911B02512C412CF12CE12C109731F502
:100FB00080911802909119028815990509F05CC07A
:100FC0004616570608F058C0809100019091010123
:100FD000009741F48DB79EB74091040150910501EF
:100FE000841B950BE817F90708F055C0F093190218
:100FF000E0931802F90171836083A0CF8D919C91D9
:10100000119712966C90129713967C901397A815CF
:10101000B90559F56C0142E0C40ED11CCA14DB04B9
:1010200020F1AC014A195B09DA011296159780F09C
:101030006282738251834083D9016D937C93E11462
:10104000F10471F0D7011396FC93EE93129776CFCB
:1010500022968C0F9D1FF90191838083F301EFCFBE
:10106000F0931B02E0931A0269CF4816590608F460
:101070002C017D01D3019ACFCB010E946C067C012B
:10108000009749F0AE01B8010E944E08C8010E94C5
:101090000807870153CF10E000E050CFFB01DC01CF
:1010A00002C001900D9241505040D8F70895FB01C5
:1010B000DC0101900D920020E1F7089510E0C5E3F6
:1010C000D0E004C0FE010E9466062196C633D10717
:0610D000C9F7F894FFCF00
:1010D60000001C02800000000000410161008E003B
:1010E6008E01FF009D00F100496E677265736120F5
:1010F600756E206E756D65726F000D0A0052657310
:10110600756C7461646F3A20004465736561732081
:101116005265706574697220656C20616C676F72C8
:1011260069746D6F3F202831203D205349202F20C0
:0811360030203D204E4F29003E
:00000001FF
