:100000000C9453000C947B000C947B000C947B00AC
:100010000C947B000C947B000C947B000C947B0074
:100020000C947B000C947B000C947B000C947B0064
:100030000C947B000C947B000C947B000C947B0054
:100040000C9407020C947B000C94D5010C94AF0126
:100050000C947B000C947B000C947B000C947B0034
:100060000C947B000C947B0000000000250028000D
:100070002B0000000000240027002A0004040404D0
:100080000404040402020202020203030303030342
:10009000010204081020408001020408102001021F
:1000A000040810203B0311241FBECFEFD8E0DEBFB1
:1000B000CDBF21E0A8E3B1E001C01D92AE3DB20783
:1000C000E1F711E0A0E0B1E0E0EEF6E002C005905B
:1000D0000D92A833B107D9F710E0C3E5D0E004C012
:1000E0002197FE010E946803C235D107C9F70E941B
:1000F00051020C946E030C940000AF92BF92CF9209
:10010000DF92EF92FF920F931F93CF93DF936C01D7
:100110007B018B01040F151FEB015E01AE18BF08B8
:10012000C017D10759F06991D601ED91FC9101906A
:10013000F081E02DC6010995892B79F7C501DF9182
:10014000CF911F910F91FF90EF90DF90CF90BF90D4
:10015000AF900895FC01538D448D252F30E0842FFE
:1001600090E0821B930B541710F0CF9608950197DF
:100170000895FC01918D828D981761F0A28DAE0FCC
:10018000BF2FB11D5D968C91928D9F5F9F73928F53
:1001900090E008958FEF9FEF0895FC01918D828D7F
:1001A000981731F0828DE80FF11D858D90E008954C
:1001B0008FEF9FEF0895FC01918D228D892F90E0A4
:1001C000805C9F4F821B91098F739927089581E46A
:1001D00091E00E94DB0021E0892B09F420E0822FCE
:1001E000089580E090E0892B29F00E94E7008111BA
:1001F0000C9400000895FC01A48DA80FB92FB11D27
:10020000A35ABF4F2C91848D90E001968F7399274C
:10021000848FA689B7892C93A089B1898C9183702A
:1002200080648C93938D848D981306C00288F38923
:10023000E02D80818F7D80830895EF92FF920F9350
:100240001F93CF93DF93EC0181E0888F9B8D8C8D82
:1002500098131AC0E889F989808185FF15C09FB776
:10026000F894EE89FF896083E889F9898081837039
:10027000806480839FBF81E090E0DF91CF911F91E8
:100280000F91FF90EF900895F62E0B8D10E00F5F09
:100290001F4F0F731127E02E8C8D8E110CC00FB6DF
:1002A00007FCFACFE889F989808185FFF5CFCE0177
:1002B0000E94FB00F1CFEB8DEC0FFD2FF11DE35AF7
:1002C000FF4FF0829FB7F8940B8FEA89FB898081FA
:1002D0008062CFCFCF93DF93EC01888D8823B9F074
:1002E000AA89BB89E889F9898C9185FD03C0808141
:1002F00086FD0DC00FB607FCF7CF8C9185FFF2CFBE
:10030000808185FFEDCFCE010E94FB00E9CFDF9118
:10031000CF9108953FB7F89480913D0190913E01AF
:10032000A0913F01B091400126B5A89B05C02F3F89
:1003300019F00196A11DB11D3FBFBA2FA92F982F0B
:100340008827BC01CD01620F711D811D911D42E006
:10035000660F771F881F991F4A95D1F708951F923E
:100360000F920FB60F9211242F933F934F935F93E9
:100370006F937F938F939F93AF93BF93EF93FF936D
:1003800081E491E00E94FB00FF91EF91BF91AF915A
:100390009F918F917F916F915F914F913F912F919D
:1003A0000F900FBE0F901F9018951F920F920FB6CF
:1003B0000F9211242F938F939F93EF93FF93E091CC
:1003C0005101F09152018081E0915701F091580163
:1003D00082FD1BC0908180915A018F5F8F732091A5
:1003E0005B01821741F0E0915A01F0E0EF5BFE4FB4
:1003F000958F80935A01FF91EF919F918F912F914B
:100400000F900FBE0F901F9018958081F4CF1F9210
:100410000F920FB60F9211242F933F938F939F93B8
:10042000AF93BF938091390190913A01A0913B0124
:10043000B0913C013091380123E0230F2D3758F55E
:100440000196A11DB11D209338018093390190932D
:100450003A01A0933B01B0933C0180913D01909102
:100460003E01A0913F01B09140010196A11DB11D37
:1004700080933D0190933E01A0933F01B0934001D2
:10048000BF91AF919F918F913F912F910F900FBE90
:100490000F901F90189526E8230F0296A11DB11DFD
:1004A000D2CF789484B5826084BD84B5816084BDE8
:1004B00085B5826085BD85B5816085BD80916E0002
:1004C000816080936E001092810080918100826033
:1004D0008093810080918100816080938100809170
:1004E00080008160809380008091B100846080935F
:1004F000B1008091B00081608093B00080917A005B
:10050000846080937A0080917A00826080937A0080
:1005100080917A00816080937A0080917A0080686F
:1005200080937A001092C100A2E1B1E022E231E0B2
:100530008D919D919927FC01E057FF4F449184587C
:100540009F4FFC018491882399F090E0880F991FB8
:10055000FC01EE58FF4FC591D491FC01E859FF4FC3
:10056000859194918FB7F894E881E42BE8838FBF4D
:100570002A173B07E9F6E0915101F091520182E020
:100580008083E0914D01F0914E011082E0914F0186
:10059000F09150018FEC808310925901E091550148
:1005A000F091560186E08083E0915301F09154016F
:1005B000808180618083E0915301F09154018081BA
:1005C00088608083E0915301F091540180818068BC
:1005D0008083E0915301F091540180818F7D80836D
:1005E0008AEF90E0A0E0B0E080934501909346014F
:1005F000A0934701B0934801C0E0D0E042E150E051
:1006000062E271E081E491E00E947D0042E050E00E
:1006100065E371E081E491E00E947D000E948A011F
:100620004B015C018AEFC82ED12CE12CF12C0E94E9
:100630008A01681979098A099B09683E7340810516
:100640009105A8F3F1E0CF1AD108E108F10828EEEE
:10065000820E23E0921EA11CB11CC114D104E1043E
:10066000F10429F7209751F20E94E700882331F224
:100670000E940000C3CFE1E4F1E01382128288EE11
:1006800093E0A0E0B0E084839583A683B78384E001
:1006900091E09183808385EC90E09587848784EC5A
:1006A00090E09787868780EC90E0918B808B81EC3F
:1006B00090E0938B828B82EC90E0958B848B86EC20
:1006C00090E0978B868B118E128E138E148E089568
:1006D000EE0FFF1F0590F491E02D0994F894FFCFE1
:1006E000000000001D017D00AA006A01DB00B900C6
:1006F000CD0006000700080009000A000B000C00EE
:100700000D00436F6E6578696F6E205265616C698C
:080710007A616461000D0A002A
:00000001FF
