:100000000C9453000C947B000C947B000C947B00AC
:100010000C947B000C947B000C947B000C947B0074
:100020000C947B000C947B000C947B000C947B0064
:100030000C947B000C947B000C947B000C947B0054
:100040000C94BF020C947B000C948D020C946702FC
:100050000C947B000C947B000C947B000C947B0034
:100060000C947B000C947B0000000000250028000D
:100070002B0000000000240027002A0004040404D0
:100080000404040402020202020203030303030342
:10009000010204081020408001020408102001021F
:1000A000040810207A0411241FBECFEFD8E0DEBF71
:1000B000CDBF11E0A0E0B1E0E8ECFEE002C00590A9
:1000C0000D92AA33B107D9F721E0AAE3B1E001C04C
:1000D0001D92A63EB207E1F710E0C3E5D0E004C0F0
:1000E0002197FE010E946A05C235D107C9F70E9417
:1000F00009030C9462070C940000AF92BF92CF9258
:10010000DF92EF92FF920F931F93CF93DF936C01D7
:100110007B018B01040F151FEB015E01AE18BF08B8
:10012000C017D10759F06991D601ED91FC9101906A
:10013000F081E02DC6010995892B79F7C501DF9182
:10014000CF911F910F91FF90EF90DF90CF90BF90D4
:10015000AF900895FC01538D448D252F30E0842FFE
:1001600090E0821B930B541710F0CF9608950197DF
:100170000895FC01918D828D981761F0A28DAE0FCC
:10018000BF2FB11D5D968C91928D9F5F9F73928F53
:1001900090E008958FEF9FEF0895FC01918D828D7F
:1001A000981731F0828DE80FF11D858D90E008954C
:1001B0008FEF9FEF0895FC01918D228D892F90E0A4
:1001C000805C9F4F821B91098F739927089583E468
:1001D00091E00E94DB0021E0892B09F420E0822FCE
:1001E000089580E090E0892B29F00E94E7008111BA
:1001F0000C9400000895FC01A48DA80FB92FB11D27
:10020000A35ABF4F2C91848D90E001968F7399274C
:10021000848FA689B7892C93A089B1898C9183702A
:1002200080648C93938D848D981306C00288F38923
:10023000E02D80818F7D80830895EF92FF920F9350
:100240001F93CF93DF93EC0181E0888F9B8D8C8D82
:1002500098131AC0E889F989808185FF15C09FB776
:10026000F894EE89FF896083E889F9898081837039
:10027000806480839FBF81E090E0DF91CF911F91E8
:100280000F91FF90EF900895F62E0B8D10E00F5F09
:100290001F4F0F731127E02E8C8D8E110CC00FB6DF
:1002A00007FCFACFE889F989808185FFF5CFCE0177
:1002B0000E94FB00F1CFEB8DEC0FFD2FF11DE35AF7
:1002C000FF4FF0829FB7F8940B8FEA89FB898081FA
:1002D0008062CFCFCF93DF93EC01888D8823B9F074
:1002E000AA89BB89E889F9898C9185FD03C0808141
:1002F00086FD0DC00FB607FCF7CF8C9185FFF2CFBE
:10030000808185FFEDCFCE010E94FB00E9CFDF9118
:10031000CF9108953FB7F89480913F0190914001AB
:10032000A0914101B091420126B5A89B05C02F3F85
:1003300019F00196A11DB11D3FBFBA2FA92F982F0B
:100340008827BC01CD01620F711D811D911D42E006
:10035000660F771F881F991F4A95D1F708950F934D
:100360001F93CF93DF93EC0188819981009759F017
:100370002A813B812617370730F081E0DF91CF914A
:100380001F910F9108958B016F5F7F4F0E9495061B
:10039000009759F0998388831B830A832C813D81C0
:1003A000232B59F7FC011082E8CF80E0E7CFEF92D2
:1003B000FF920F931F93CF93DF936115710541F463
:1003C00080E0DF91CF911F910F91FF90EF90089502
:1003D00041155105B1F07B01EC010C811D81040F29
:1003E000151FB8010E94AF01882351F3288139817C
:1003F0008C819D81B701820F931F0E945B071D8333
:100400000C8381E0DECFCF93DF93EC01888199816B
:10041000009711F00E940C06198218821D821C821E
:100420001B821A82DF91CF910895CF92DF92EF92D3
:10043000FF920F931F93CF93DF93CDB7DEB76297F1
:100440000FB6F894DEBF0FBECDBF8C01CB01F80113
:100450001182108213821282158214824AE09E0158
:100460002F5F3F4F6901B9010E94A704F601019077
:100470000020E9F731977F01EC18FD08B701C801AA
:100480000E94AF01811112C0C8010E94030262964E
:100490000FB6F894DEBF0FBECDBFDF91CF911F9195
:1004A0000F91FF90EF90DF90CF900895F801F582C3
:1004B000E482B601808191810E945B07E8CFFC0154
:1004C00080819181009711F00C940C0608951F9281
:1004D0000F920FB60F9211242F933F934F935F9378
:1004E0006F937F938F939F93AF93BF93EF93FF93FC
:1004F00083E491E00E94FB00FF91EF91BF91AF91E7
:100500009F918F917F916F915F914F913F912F912B
:100510000F900FBE0F901F9018951F920F920FB65D
:100520000F9211242F938F939F93EF93FF93E0915A
:100530005301F09154018081E0915901F0915A01E9
:1005400082FD1BC0908180915C018F5F8F73209131
:100550005D01821741F0E0915C01F0E0ED5BFE4F40
:10056000958F80935C01FF91EF919F918F912F91D7
:100570000F900FBE0F901F9018958081F4CF1F929F
:100580000F920FB60F9211242F933F938F939F9347
:10059000AF93BF9380913B0190913C01A0913D01AD
:1005A000B0913E0130913A0123E0230F2D3758F5E9
:1005B0000196A11DB11D20933A0180933B019093B8
:1005C0003C01A0933D01B0933E0180913F01909189
:1005D0004001A0914101B09142010196A11DB11DC0
:1005E00080933F0190934001A0934101B093420159
:1005F000BF91AF919F918F913F912F910F900FBE1F
:100600000F901F90189526E8230F0296A11DB11D8B
:10061000D2CFCF93DF93CDB7DEB762970FB6F89402
:10062000DEBF0FBECDBF789484B5826084BD84B533
:10063000816084BD85B5826085BD85B5816085BDDD
:1006400080916E00816080936E0010928100809195
:10065000810082608093810080918100816080931D
:100660008100809180008160809380008091B10042
:1006700084608093B1008091B00081608093B0006D
:1006800080917A00846080937A0080917A00826001
:1006900080937A0080917A00816080937A008091C3
:1006A0007A00806880937A001092C100A8E1B1E0DE
:1006B00028E231E08D919D919927FC01E057FF4F91
:1006C000649184589F4FFC0184918823A1F090E0AD
:1006D000880F991FFC01EE58FF4F45915491FC0182
:1006E000E859FF4F859194918FB7F894FA01908162
:1006F000962B90838FBF2A173B07E1F6E0915301B9
:10070000F091540182E08083E0914F01F09150011B
:100710001082E0915101F09152018FEC8083109290
:100720005B01E0915701F091580186E08083E091F0
:100730005501F0915601808180618083E0915501DF
:10074000F0915601808188608083E0915501F0919D
:100750005601808180688083E0915501F0915601B7
:1007600080818F7D808390E4392E44244A9423E055
:10077000522E612C712C00E010E030927C008091B0
:100780007A00806480937A0080917A0086FDFCCFA5
:1007900080917800A0917900BA2FA82FB093E10141
:1007A000A093E00127E030E00E946305A3019201DD
:1007B0000E94DC04B901CE0101960E9415026091ED
:1007C000E0017091E101CE0107960E9415021E869C
:1007D0001D86188A1F861A8A198A63E070E0CE0186
:1007E0000D960E94AF0181117AC0CE010D960E9434
:1007F00003024B855C856F817885CE010D960E9442
:10080000D701811104C0CE010D960E94030249E078
:1008100050E06CE271E0CE010D960E94D70181118B
:1008200004C0CE010D960E9403024D815E81698154
:100830007A81CE010D960E94D701811104C0CE01AC
:100840000D960E94030249895A896D857E8583E44D
:1008500091E00E947D0042E050E066E371E083E4B5
:1008600091E00E947D00CE010D960E945F02CE01B4
:1008700007960E945F02CE0101960E945F020E94CD
:100880008A014B015C0184E6C82ED12CE12CF12CAD
:100890000E948A01681979098A099B09683E734098
:1008A00081059105A8F3F1E0CF1AD108E108F1081C
:1008B00028EE820E23E0921EA11CB11CC114D104AB
:1008C000E104F10429F70115110509F456CF0E943E
:1008D000E700882309F451CF0E9400004ECF83E047
:1008E00090E09A8B898B68E271E08D859E850E94ED
:1008F0005B077FCFE3E4F1E01382128288EE93E09E
:10090000A0E0B0E084839583A683B7838AE091E07A
:100910009183808385EC90E09587848784EC90E0D8
:100920009787868780EC90E0918B808B81EC90E0BC
:10093000938B828B82EC90E0958B848B86EC90E09D
:10094000978B868B118E128E138E148E0895BB2773
:100950004A3031F4992322F4BDE2909581959F4F5E
:100960000C94B304BB27FB015527AA27880F991FB6
:10097000AA1FA41710F0A41B83955051B9F7A05DCE
:10098000AA3308F0A95DA193009779F7B111B1934B
:100990001192CB010C94CC04DC01FC01672F719106
:1009A0007723E1F7329704C07C916D937083629155
:1009B000AE17BF07C8F30895052E97FB1EF40094E9
:1009C0000E94F30457FD07D00E94320507FC03D0B4
:1009D0004EF40C94F30450954095309521953F4F7B
:1009E0004F4F5F4F089590958095709561957F4F1B
:1009F0008F4F9F4F08952F923F924F925F926F9229
:100A00007F928F929F92AF92BF92CF92DF92EF929E
:100A1000FF920F931F93CF93DF93CDB7DEB7CA1B1F
:100A2000DB0B0FB6F894DEBF0FBECDBF09942A884A
:100A3000398848885F846E847D848C849B84AA84F2
:100A4000B984C884DF80EE80FD800C811B81AA817F
:100A5000B981CE0FD11D0FB6F894DEBF0FBECDBF4A
:100A6000ED010895A1E21A2EAA1BBB1BFD010DC0CA
:100A7000AA1FBB1FEE1FFF1FA217B307E407F5074E
:100A800020F0A21BB30BE40BF50B661F771F881F2A
:100A9000991F1A9469F760957095809590959B01C0
:100AA000AC01BD01CF010895A29FB001B39FC00169
:100AB000A39F700D811D1124911DB29F700D811D8A
:100AC0001124911D08950E945405B7FF0895821BBB
:100AD000930B0895EE0FFF1F0590F491E02D0994FC
:100AE0000F931F93CF93DF938230910510F482E030
:100AF00090E0E091E401F091E50130E020E0B0E029
:100B0000A0E0309799F42115310509F44AC0281B5B
:100B1000390B24303105D8F58A819B816115710527
:100B200089F1FB0193838283FE0111C040815181D1
:100B30000281138148175907E0F04817590799F4C3
:100B4000109761F012960C93129713961C9332969D
:100B5000CF01DF91CF911F910F9108950093E40190
:100B60001093E501F4CF2115310551F042175307D9
:100B700038F0A901DB019A01BD01DF01F801C1CF05
:100B8000EF01F9CF9093E5018093E401CDCFFE0111
:100B9000E20FF31F81939193225031093983288307
:100BA000D7CF2091E2013091E301232B41F4209132
:100BB0000201309103013093E3012093E20120917F
:100BC0000001309101012115310541F42DB73EB7E7
:100BD0004091040150910501241B350BE091E20185
:100BE000F091E301E217F307A0F42E1B3F0B281747
:100BF000390778F0AC014E5F5F4F2417350748F096
:100C00004E0F5F1F5093E3014093E2018193919354
:100C10009FCFF0E0E0E09CCFCF93DF930097E9F027
:100C2000FC01329713821282A091E401B091E50198
:100C3000ED0130E020E01097A1F420813181820F96
:100C4000931F2091E2013091E3012817390709F041
:100C500061C0F093E301E093E201DF91CF91089549
:100C6000EA01CE17DF07E8F54A815B819E01411555
:100C70005105B1F7E901FB83EA8349915991C40F0A
:100C8000D51FEC17FD0761F4808191810296840FD6
:100C9000951FE90199838883828193819B838A834D
:100CA000F0E0E0E012968D919C9113970097B9F5D2
:100CB0002D913C911197CD010296820F931F2091A7
:100CC000E2013091E3012817390739F6309751F5E1
:100CD0001092E5011092E401B093E301A093E201C8
:100CE000BCCFD383C28340815181840F951FC81725
:100CF000D90761F44E5F5F4F88819981480F591F72
:100D0000518340838A819B8193838283211531059E
:100D100009F0B0CFF093E501E093E4019ECFFD012F
:100D2000DC01C0CF13821282D7CFB0E0A0E0EBE9A4
:100D3000F6E00C94FD048C01009751F4CB010E9465
:100D400070058C01C801CDB7DEB7E0E10C94190540
:100D5000FC01E60FF71F9C0122503109E217F3074F
:100D600008F49DC0D901CD91DC911197C617D70722
:100D700098F0C530D10530F3CE0104978617970758
:100D800008F3C61BD70B2297C193D1936D937C9325
:100D9000CF010E940C06D6CF5B01AC1ABD0A4C01F4
:100DA0008C0E9D1EA091E401B091E501512C412CC7
:100DB000F12CE12C109731F58091E2019091E30143
:100DC0008815990509F05CC04616570608F058C00A
:100DD0008091000190910101009741F48DB79EB779
:100DE0004091040150910501841B950BE817F90708
:100DF00008F055C0F093E301E093E201F90171833B
:100E00006083A0CF8D919C91119712966C90129750
:100E100013967C901397A815B90559F56C0142E01B
:100E2000C40ED11CCA14DB0420F1AC014A195B09C1
:100E3000DA011296159780F06282738251834083A3
:100E4000D9016D937C93E114F10471F0D7011396ED
:100E5000FC93EE93129776CF22968C0F9D1FF9018B
:100E600091838083F301EFCFF093E501E093E401F8
:100E700069CF4816590608F42C017D01D3019ACF99
:100E8000CB010E9470057C01009749F0AE01B801CA
:100E90000E945207C8010E940C06870153CF10E040
:100EA00000E050CFFB01DC0102C001900D924150E7
:100EB0005040D8F70895FB01DC0101900D9200200D
:080EC000E1F70895F894FFCF5B
:100EC8000000E6018000000000001D017D00AA006E
:100ED8006A01DB00B900CD00060007000800090020
:100EE8000A000B000C000D00763A200020764E75A3
:0A0EF8006576613A20000D0A000043
:00000001FF
