:100000000C9453000C947B000C947B000C947B00AC
:100010000C947B000C947B000C947B000C947B0074
:100020000C947B000C947B000C947B000C947B0064
:100030000C947B000C947B000C947B000C947B0054
:100040000C9407020C947B000C94D5010C94AF0126
:100050000C947B000C947B000C947B000C947B0034
:100060000C947B000C947B0000000000250028000D
:100070002B0000000000240027002A0004040404D0
:100080000404040402020202020203030303030342
:10009000010204081020408001020408102001021F
:1000A000040810208E0311241FBECFEFD8E0DEBF5E
:1000B000CDBF11E0A0E0B1E0EAECF7E002C00590AE
:1000C0000D92A632B107D9F721E0A6E2B1E001C056
:1000D0001D92AC3CB207E1F710E0C3E5D0E004C0EC
:1000E0002197FE010E94DD03C235D107C9F70E94A6
:1000F00051020C94E3030C940000AF92BF92CF9294
:10010000DF92EF92FF920F931F93CF93DF936C01D7
:100110007B018B01040F151FEB015E01AE18BF08B8
:10012000C017D10759F06991D601ED91FC9101906A
:10013000F081E02DC6010995892B79F7C501DF9182
:10014000CF911F910F91FF90EF90DF90CF90BF90D4
:10015000AF900895FC01538D448D252F30E0842FFE
:1001600090E0821B930B541710F0CF9608950197DF
:100170000895FC01918D828D981761F0A28DAE0FCC
:10018000BF2FB11D5D968C91928D9F5F9F73928F53
:1001900090E008958FEF9FEF0895FC01918D828D7F
:1001A000981731F0828DE80FF11D858D90E008954C
:1001B0008FEF9FEF0895FC01918D228D892F90E0A4
:1001C000805C9F4F821B91098F73992708958FE25E
:1001D00091E00E94DB0021E0892B09F420E0822FCE
:1001E000089580E090E0892B29F00E94E7008111BA
:1001F0000C9400000895FC01A48DA80FB92FB11D27
:10020000A35ABF4F2C91848D90E001968F7399274C
:10021000848FA689B7892C93A089B1898C9183702A
:1002200080648C93938D848D981306C00288F38923
:10023000E02D80818F7D80830895EF92FF920F9350
:100240001F93CF93DF93EC0181E0888F9B8D8C8D82
:1002500098131AC0E889F989808185FF15C09FB776
:10026000F894EE89FF896083E889F9898081837039
:10027000806480839FBF81E090E0DF91CF911F91E8
:100280000F91FF90EF900895F62E0B8D10E00F5F09
:100290001F4F0F731127E02E8C8D8E110CC00FB6DF
:1002A00007FCFACFE889F989808185FFF5CFCE0177
:1002B0000E94FB00F1CFEB8DEC0FFD2FF11DE35AF7
:1002C000FF4FF0829FB7F8940B8FEA89FB898081FA
:1002D0008062CFCFCF93DF93EC01888D8823B9F074
:1002E000AA89BB89E889F9898C9185FD03C0808141
:1002F00086FD0DC00FB607FCF7CF8C9185FFF2CFBE
:10030000808185FFEDCFCE010E94FB00E9CFDF9118
:10031000CF9108953FB7F8948091270190912801DB
:10032000A0912901B0912A0126B5A89B05C02F3FB5
:1003300019F00196A11DB11D3FBFBA2FA92F982F0B
:100340008827BC01CD01620F711D811D911D42E006
:10035000660F771F881F991F4A95D1F708951F923E
:100360000F920FB60F9211242F933F934F935F93E9
:100370006F937F938F939F93AF93BF93EF93FF936D
:100380008FE291E00E94FB00FF91EF91BF91AF914E
:100390009F918F917F916F915F914F913F912F919D
:1003A0000F900FBE0F901F9018951F920F920FB6CF
:1003B0000F9211242F938F939F93EF93FF93E091CC
:1003C0003F01F09140018081E0914501F0914601AB
:1003D00082FD1BC09081809148018F5F8F732091B7
:1003E0004901821741F0E0914801F0E0E15DFE4FE4
:1003F000958F80934801FF91EF919F918F912F915D
:100400000F900FBE0F901F9018958081F4CF1F9210
:100410000F920FB60F9211242F933F938F939F93B8
:10042000AF93BF9380912B0190912C01A0912D014E
:10043000B0912E013091260123E0230F2D3758F57E
:100440000196A11DB11D2093260180932B0190934D
:100450002C01A0932D01B0932E0180912701909142
:100460002801A0912901B0912A010196A11DB11D79
:100470008093270190932801A0932901B0932A012A
:10048000BF91AF919F918F913F912F910F900FBE90
:100490000F901F90189526E8230F0296A11DB11DFD
:1004A000D2CFCF93DF93CDB7DEB7A1970FB6F89435
:1004B000DEBF0FBECDBF789484B5826084BD84B5A5
:1004C000816084BD85B5826085BD85B5816085BD4F
:1004D00080916E00816080936E0010928100809107
:1004E000810082608093810080918100816080938F
:1004F0008100809180008160809380008091B100B4
:1005000084608093B1008091B00081608093B000DE
:1005100080917A00846080937A0080917A00826072
:1005200080937A0080917A00816080937A00809134
:100530007A00806880937A001092C100A2E1B1E055
:1005400022E231E08D919D919927FC01E057FF4F08
:10055000649184589F4FFC0184918823A1F090E01E
:10056000880F991FFC01EE58FF4F45915491FC01F3
:10057000E859FF4F859194918FB7F894FA019081D3
:10058000962B90838FBF2A173B07E1F6E0913F013E
:10059000F091400182E08083E0913B01F0913C01C9
:1005A0001082E0913D01F0913E018FEC808310922A
:1005B0004701E0914301F091440186E08083E0919E
:1005C0004101F0914201808180618083E09141018D
:1005D000F0914201808188608083E0914101F09137
:1005E0004201808180688083E0914101F091420165
:1005F00080818F7D80839AE0492E512C612C712C53
:1006000020E0222E20E0322E8FB7F894C0902B01EC
:10061000D0902C01E0902D01F0902E018FBFF7FEBD
:1006200067C06DE28FE291E00E941D01222733270F
:10063000A9012C193D094E095F0919A28E010F5D10
:100640001F4FCA01B901A30192010E94BB03605D63
:10065000F80162938F01211531054105510589F794
:100660000115110561F001900020E9F73197AF0104
:10067000401B510BB8018FE291E00E947D0042E0E7
:1006800050E062E271E08FE291E00E947D000E9402
:100690008A014B015C0188EEC82E83E0D82EE12C44
:1006A000F12C0E948A01681979098A099B09683E20
:1006B000734081059105A8F3F1E0CF1AD108E10854
:1006C000F10828EE820E23E0921EA11CB11CC11479
:1006D000D104E104F10429F72114310409F494CF81
:1006E0000E94E700882309F48FCF0E9400008CCF7E
:1006F00019A28E010F5D1F4FC701B601A301920120
:100700000E94BB0369017A01605DF80162938F0169
:10071000C114D104E104F10479F7A2CFEFE2F1E0D2
:100720001382128288EE93E0A0E0B0E08483958388
:10073000A683B78384E091E09183808385EC90E089
:100740009587848784EC90E09787868780EC90E09B
:10075000918B808B81EC90E0938B828B82EC90E08C
:10076000958B848B86EC90E0978B868B118E128E06
:10077000138E148E0895A1E21A2EAA1BBB1BFD0135
:100780000DC0AA1FBB1FEE1FFF1FA217B307E40770
:10079000F50720F0A21BB30BE40BF50B661F771FC8
:1007A000881F991F1A9469F76095709580959095A8
:1007B0009B01AC01BD01CF010895EE0FFF1F059015
:0A07C000F491E02D0994F894FFCFA6
:1007CA00000000001D017D00AA006A01DB00B900DB
:1007DA00CD0006000700080009000A000B000C0003
:0607EA000D000D0A0000E5
:00000001FF
