:100000000C9453000C947B000C947B000C947B00AC
:100010000C947B000C947B000C947B000C947B0074
:100020000C947B000C947B000C947B000C947B0064
:100030000C947B000C947B000C947B000C947B0054
:100040000C942F020C947B000C94FD010C94D701AE
:100050000C947B000C947B000C947B000C947B0034
:100060000C947B000C947B0000000000250028000D
:100070002B0000000000240027002A0004040404D0
:100080000404040402020202020203030303030342
:10009000010204081020408001020408102001021F
:1000A00004081020080411241FBECFEFD8E0DEBFE3
:1000B000CDBF21E0A0E3B1E001C01D92AA3DB2078F
:1000C000E1F711E0A0E0B1E0E6E3FDE002C0059059
:1000D0000D92A033B107D9F710E0C3E5D0E004C01A
:1000E0002197FE010E94A104C235D107C9F70E94E1
:1000F00079020C9499060C940000AF92BF92CF92B3
:10010000DF92EF92FF920F931F93CF93DF936C01D7
:100110007B018B01040F151FEB015E01AE18BF08B8
:10012000C017D10759F06991D601ED91FC9101906A
:10013000F081E02DC6010995892B79F7C501DF9182
:10014000CF911F910F91FF90EF90DF90CF90BF90D4
:10015000AF900895FC01538D448D252F30E0842FFE
:1001600090E0821B930B541710F0CF9608950197DF
:100170000895FC01918D828D981761F0A28DAE0FCC
:10018000BF2FB11D5D968C91928D9F5F9F73928F53
:1001900090E008958FEF9FEF0895FC01918D828D7F
:1001A000981731F0828DE80FF11D858D90E008954C
:1001B0008FEF9FEF0895FC01918D228D892F90E0A4
:1001C000805C9F4F821B91098F739927089589E363
:1001D00091E00E94DB0021E0892B09F420E0822FCE
:1001E000089580E090E0892B29F00E94E7008111BA
:1001F0000C9400000895FC01A48DA80FB92FB11D27
:10020000A35ABF4F2C91848D90E001968F7399274C
:10021000848FA689B7892C93A089B1898C9183702A
:1002200080648C93938D848D981306C00288F38923
:10023000E02D80818F7D80830895EF92FF920F9350
:100240001F93CF93DF93EC0181E0888F9B8D8C8D82
:1002500098131AC0E889F989808185FF15C09FB776
:10026000F894EE89FF896083E889F9898081837039
:10027000806480839FBF81E090E0DF91CF911F91E8
:100280000F91FF90EF900895F62E0B8D10E00F5F09
:100290001F4F0F731127E02E8C8D8E110CC00FB6DF
:1002A00007FCFACFE889F989808185FFF5CFCE0177
:1002B0000E94FB00F1CFEB8DEC0FFD2FF11DE35AF7
:1002C000FF4FF0829FB7F8940B8FEA89FB898081FA
:1002D0008062CFCFCF93DF93EC01888D8823B9F074
:1002E000AA89BB89E889F9898C9185FD03C0808141
:1002F00086FD0DC00FB607FCF7CF8C9185FFF2CFBE
:10030000808185FFEDCFCE010E94FB00E9CFDF9118
:10031000CF9108953FB7F8948091350190913601BF
:10032000A0913701B091380126B5A89B05C02F3F99
:1003300019F00196A11DB11D3FBFBA2FA92F982F0B
:100340008827BC01CD01620F711D811D911D42E006
:10035000660F771F881F991F4A95D1F708950F934D
:100360001F93CF93DF93EC0188819981009759F017
:100370002A813B812617370730F081E0DF91CF914A
:100380001F910F9108958B016F5F7F4F0E94CC05E5
:10039000009759F0998388831B830A832C813D81C0
:1003A000232B59F7FC011082E8CF80E0E7CF1F92A2
:1003B0000F920FB60F9211242F933F934F935F9399
:1003C0006F937F938F939F93AF93BF93EF93FF931D
:1003D00089E391E00E94FB00FF91EF91BF91AF9103
:1003E0009F918F917F916F915F914F913F912F914D
:1003F0000F900FBE0F901F9018951F920F920FB67F
:100400000F9211242F938F939F93EF93FF93E0917B
:100410004901F0914A018081E0914F01F091500132
:1004200082FD1BC09081809152018F5F8F7320915C
:100430005301821741F0E0915201F0E0E75CFE4F7A
:10044000958F80935201FF91EF919F918F912F9102
:100450000F900FBE0F901F9018958081F4CF1F92C0
:100460000F920FB60F9211242F933F938F939F9368
:10047000AF93BF938091310190913201A0913301EC
:10048000B09134013091300123E0230F2D3758F51E
:100490000196A11DB11D20933001809331019093ED
:1004A0003201A0933301B0933401809135019091D2
:1004B0003601A0913701B09138010196A11DB11DFF
:1004C0008093350190933601A0933701B0933801A2
:1004D000BF91AF919F918F913F912F910F900FBE40
:1004E0000F901F90189526E8230F0296A11DB11DAD
:1004F000D2CFCF93DF93CDB7DEB768970FB6F8941E
:10050000DEBF0FBECDBF789484B5826084BD84B554
:10051000816084BD85B5826085BD85B5816085BDFE
:1005200080916E00816080936E00109281008091B6
:10053000810082608093810080918100816080933E
:100540008100809180008160809380008091B10063
:1005500084608093B1008091B00081608093B0008E
:1005600080917A00846080937A0080917A00826022
:1005700080937A0080917A00816080937A008091E4
:100580007A00806880937A001092C100A8E1B1E0FF
:1005900028E231E08D919D919927FC01E057FF4FB2
:1005A000649184589F4FFC0184918823A1F090E0CE
:1005B000880F991FFC01EE58FF4F45915491FC01A3
:1005C000E859FF4F859194918FB7F894FA01908183
:1005D000962B90838FBF2A173B07E1F6E0914901E4
:1005E000F0914A0182E08083E0914501F09146015B
:1005F0001082E0914701F09148018FEC80831092C6
:100600005101E0914D01F0914E0186E08083E0912F
:100610004B01F0914C01808180618083E0914B011E
:10062000F0914C01808188608083E0914B01F091D2
:100630004C01808180688083E0914B01F0914C01F6
:1006400080818F7D808390E4392E8E010F5F1F4F54
:1006500020E0C22E20E0D22E30927C0080917A00E1
:10066000806480937A0080917A0086FDFCCF80912F
:100670007800909179001C8A1B8A1E8A1D8A188E28
:100680001F8A4AE0B8010E943504F8010190002059
:10069000E9F731977F01E01AF10AB701CE014396DD
:1006A0000E94AF012B893C89811194C0211531052D
:1006B00019F0C9010E9443051C8A1B8A188E1F8AE3
:1006C0001E8A1D8A1A8219821C821B821E821D822A
:1006D00063E070E0C8010E94AF0129813A81811175
:1006E00080C02115310519F0C9010E9443051A8205
:1006F00019821E821D821C821B82AB88BC88A114B9
:10070000B10409F478C0EF88F88CE114F104B1F079
:100710008D819E81E80EF91EB701C8010E94AF01CC
:10072000882309F468C029813A818D819E81B501B1
:10073000820F931F0E949206FE82ED824D815E81A0
:1007400069817A8189E391E00E947D0042E050E076
:100750006CE271E089E391E00E947D0089819A81D9
:10076000009711F00E9443058B899C89009711F036
:100770000E9443050E948A014B015C0184E6482ED9
:10078000512C612C712C0E948A01681979098A09FF
:100790009B09683E734081059105A8F3F1E04F1A6B
:1007A00051086108710828EE820E23E0921EA11CF8
:1007B000B11C411451046104710429F7C114D1041E
:1007C00009F44ACF0E94E700882309F445CF0E942C
:1007D000000042CFF88EEF8AB801C9010E9492064C
:1007E00071CF83E090E09E838D8368E271E0C90160
:1007F0000E94920682CF89819A81009711F00E940F
:1008000043051A8219821E821D821C821B8296CF8A
:10081000E9E3F1E01382128288EE93E0A0E0B0E019
:1008200084839583A683B7838AE091E09183808354
:1008300085EC90E09587848784EC90E097878687A5
:1008400080EC90E0918B808B81EC90E0938B828B9D
:1008500082EC90E0958B848B86EC90E0978B868B76
:10086000118E128E138E148E0895BB274A3031F4E8
:10087000992322F4BDE2909581959F4F0C944104F9
:10088000BB27FB015527AA27880F991FAA1FA4176A
:1008900010F0A41B83955051B9F7A05DAA3308F05E
:1008A000A95DA193009779F7B111B1931192CB0192
:1008B0000C945A04DC01FC01672F71917723E1F756
:1008C000329704C07C916D9370836291AE17BF071D
:1008D000C8F308952F923F924F925F926F927F924A
:1008E0008F929F92AF92BF92CF92DF92EF92FF9240
:1008F0000F931F93CF93DF93CDB7DEB7CA1BDB0BEC
:100900000FB6F894DEBF0FBECDBF09942A88398890
:1009100048885F846E847D848C849B84AA84B98497
:10092000C884DF80EE80FD800C811B81AA81B981A3
:10093000CE0FD11D0FB6F894DEBF0FBECDBFED01B7
:100940000895EE0FFF1F0590F491E02D09940F9389
:100950001F93CF93DF938230910510F482E090E0F3
:10096000E091D801F091D90130E020E0B0E0A0E0C2
:10097000309799F42115310509F44AC0281B390B29
:1009800024303105D8F58A819B816115710589F183
:10099000FB0193838283FE0111C04081518102815A
:1009A000138148175907E0F04817590799F4109731
:1009B00061F012960C93129713961C933296CF0106
:1009C000DF91CF911F910F9108950093D80110935B
:1009D000D901F4CF2115310551F04217530738F0F2
:1009E000A901DB019A01BD01DF01F801C1CFEF01CF
:1009F000F9CF9093D9018093D801CDCFFE01E20FBA
:100A0000F31F819391932250310939832883D7CFE3
:100A10002091D6013091D701232B41F4209102017E
:100A2000309103013093D7012093D601209100012A
:100A3000309101012115310541F42DB73EB74091A8
:100A4000040150910501241B350BE091D601F09172
:100A5000D701E217F307A0F42E1B3F0B2817390725
:100A600078F0AC014E5F5F4F2417350748F04E0F0A
:100A70005F1F5093D7014093D601819391939FCFED
:100A8000F0E0E0E09CCFCF93DF930097E9F0FC012A
:100A9000329713821282A091D801B091D901ED0151
:100AA00030E020E01097A1F420813181820F931F64
:100AB0002091D6013091D7012817390709F061C07C
:100AC000F093D701E093D601DF91CF910895EA0129
:100AD000CE17DF07E8F54A815B819E01411551057C
:100AE000B1F7E901FB83EA8349915991C40FD51FFE
:100AF000EC17FD0761F4808191810296840F951FA8
:100B0000E90199838883828193819B838A83F0E0C2
:100B1000E0E012968D919C9113970097B9F52D9175
:100B20003C911197CD010296820F931F2091D6011F
:100B30003091D7012817390739F6309751F51092BF
:100B4000D9011092D801B093D701A093D601BCCFA0
:100B5000D383C28340815181840F951FC817D90761
:100B600061F44E5F5F4F88819981480F591F51830F
:100B700040838A819B81938382832115310509F00B
:100B8000B0CFF093D901E093D8019ECFFD01DC01F5
:100B9000C0CF13821282D7CFB0E0A0E0E2EDF5E043
:100BA0000C946C048C01009751F4CB010E94A704B3
:100BB0008C01C801CDB7DEB7E0E10C948804FC01DC
:100BC000E60FF71F9C0122503109E217F30708F4E2
:100BD0009DC0D901CD91DC911197C617D70798F028
:100BE000C530D10530F3CE0104978617970708F377
:100BF000C61BD70B2297C193D1936D937C93CF01E2
:100C00000E944305D6CF5B01AC1ABD0A4C018C0E85
:100C10009D1EA091D801B091D901512C412CF12CED
:100C2000E12C109731F58091D6019091D70188156C
:100C3000990509F05CC04616570608F058C0809127
:100C4000000190910101009741F48DB79EB740914A
:100C5000040150910501841B950BE817F90708F072
:100C600055C0F093D701E093D601F90171836083F9
:100C7000A0CF8D919C91119712966C90129713961C
:100C80007C901397A815B90559F56C0142E0C40E84
:100C9000D11CCA14DB0420F1AC014A195B09DA014A
:100CA0001296159780F06282738251834083D90136
:100CB0006D937C93E114F10471F0D7011396FC93CA
:100CC000EE93129776CF22968C0F9D1FF901918398
:100CD0008083F301EFCFF093D901E093D80169CF7E
:100CE0004816590608F42C017D01D3019ACFCB0197
:100CF0000E94A7047C01009749F0AE01B8010E9450
:100D00008906C8010E944305870153CF10E000E027
:100D100050CFFB01DC0102C001900D9241505040C8
:100D2000D8F70895FB01DC0101900D920020E1F756
:060D30000895F894FFCFC6
:100D36000000DA018000000000001D017D00AA000D
:100D46006A01DB00B900CD000600070008000900B3
:100D56000A000B000C000D00763A20000D0A000078
:00000001FF
