:100000000C945D000C9485000C9485000C94850084
:100010000C9485000C9485000C9485000C9485004C
:100020000C9485000C9485000C9485000C9485003C
:100030000C9485000C9485000C9485000C9485002C
:100040000C94C5020C9485000C9493020C946D02E0
:100050000C9485000C9485000C9485000C9485000C
:100060000C9485000C94850000000008000201003B
:100070000003040700000000000000000000000072
:10008000250028002B0000000000240027002A0083
:10009000040404040404040402020202020203032E
:1000A0000303030301020408102040800102040836
:1000B00010200102040810209A0411241FBECFEF63
:1000C000D8E0DEBFCDBF21E0ACE2B1E001C01D92BF
:1000D000A83DB207E1F711E0A0E0B1E0E8E6FEE0FC
:1000E00002C005900D92AC32B107D9F710E0CDE512
:1000F000D0E004C02197FE010E943A05CC35D1071B
:10010000C9F70E940F030C9432070C940000AF92C1
:10011000BF92CF92DF92EF92FF920F931F93CF93F4
:10012000DF936C017B018B01040F151FEB015E0156
:10013000AE18BF08C017D10759F06991D601ED91EB
:10014000FC910190F081E02DC6010995892B79F78A
:10015000C501DF91CF911F910F91FF90EF90DF903C
:10016000CF90BF90AF900895FC01538D448D252F03
:1001700030E0842F90E0821B930B541710F0CF9641
:10018000089501970895FC01918D828D981761F073
:10019000A28DAE0FBF2FB11D5D968C91928D9F5F8A
:1001A0009F73928F90E008958FEF9FEF08952FB780
:1001B000F8948091330190913401A0913501B09170
:1001C00036012FBF80933F0190934001A0934101DE
:1001D000B093420187E391E00E94C30097FF26C0DD
:1001E0002FB7F8948091330190913401A09135019B
:1001F000B09136012FBF40913F0150914001609175
:10020000410170914201841B950BA60BB70B4091E5
:100210003B0150913C0160913D0170913E0184177A
:100220009507A607B707B0F28FEF9FEF0895FC017F
:10023000918D828D981731F0828DE80FF11D858D9B
:1002400090E008958FEF9FEF0895FC01918D228D2E
:10025000892F90E0805C9F4F821B91098F739927B3
:10026000089587E391E00E94250121E0892B09F49C
:1002700020E0822F089580E090E0892B29F00E94F1
:10028000310181110C9400000895FC01A48DA80F88
:10029000B92FB11DA35ABF4F2C91848D90E00196C8
:1002A0008F739927848FA689B7892C93A089B189E8
:1002B0008C91837080648C93938D848D981306C089
:1002C0000288F389E02D80818F7D80830895EF92ED
:1002D000FF920F931F93CF93DF93EC0181E0888F00
:1002E0009B8D8C8D98131AC0E889F989808185FFD0
:1002F00015C09FB7F894EE89FF896083E889F98972
:1003000080818370806480839FBF81E090E0DF9173
:10031000CF911F910F91FF90EF900895F62E0B8DC6
:1003200010E00F5F1F4F0F731127E02E8C8D8E1181
:100330000CC00FB607FCFACFE889F989808185FFE8
:10034000F5CFCE010E944501F1CFEB8DEC0FFD2FD3
:10035000F11DE35AFF4FF0829FB7F8940B8FEA89A3
:10036000FB8980818062CFCFCF93DF93EC01888DB2
:100370008823B9F0AA89BB89E889F9898C9185FD20
:1003800003C0808186FD0DC00FB607FCF7CF8C91AE
:1003900085FFF2CF808185FFEDCFCE010E94450120
:1003A000E9CFDF91CF91089590E0FC01E859FF4F2C
:1003B0002491FC01EC55FF4F3491FC01E057FF4FB5
:1003C000E491EE23C9F0222339F0233001F1A8F49F
:1003D000213019F1223029F1F0E0EE0FFF1FE4582F
:1003E000FF4FA591B4918FB7F894EC91611126C09D
:1003F00030953E233C938FBF08952730A9F02830D5
:10040000C9F0243049F7809180008F7D03C080912E
:1004100080008F7780938000DFCF84B58F7784BD95
:10042000DBCF84B58F7DFBCF8091B0008F77809339
:10043000B000D2CF8091B0008F7DF9CF3E2BDACFC4
:100440003FB7F89480912D0190912E01A0912F013A
:10045000B091300126B5A89B05C02F3F19F0019639
:10046000A11DB11D3FBFBA2FA92F982F8827BC010E
:10047000CD01620F711D811D911D42E0660F771F36
:10048000881F991F4A95D1F708950F931F93CF9313
:10049000DF93EC0188819981009759F02A813B8193
:1004A0002617370730F081E0DF91CF911F910F9130
:1004B00008958B016F5F7F4F0E946506009759F08A
:1004C000998388831B830A832C813D81232B59F7D1
:1004D000FC011082E8CF80E0E7CF1F920F920FB6A9
:1004E0000F9211242F933F934F935F936F937F93BA
:1004F0008F939F93AF93BF93EF93FF9387E391E025
:100500000E944501FF91EF91BF91AF919F918F9113
:100510007F916F915F914F913F912F910F900FBEFF
:100520000F901F9018951F920F920FB60F921124E3
:100530002F938F939F93EF93FF93E0914701F09157
:1005400048018081E0914D01F0914E0182FD1BC078
:100550009081809150018F5F8F732091510182179C
:1005600041F0E0915001F0E0E95CFE4F958F8093FF
:100570005001FF91EF919F918F912F910F900FBE9E
:100580000F901F9018958081F4CF1F920F920FB695
:100590000F9211242F933F938F939F93AF93BF9309
:1005A0008091330190913401A0913501B0913601D1
:1005B00030912C0123E0230F2D3758F50196A11D12
:1005C000B11D20932C018093330190933401A093AB
:1005D0003501B093360180912D0190912E01A091AB
:1005E0002F01B09130010196A11DB11D80932D0105
:1005F00090932E01A0932F01B0933001BF91AF9142
:100600009F918F913F912F910F900FBE0F901F9050
:10061000189526E8230F0296A11DB11DD2CFCF93C6
:10062000DF93CDB7DEB728970FB6F894DEBF0FBEC5
:10063000CDBF789484B5826084BD84B5816084BD6B
:1006400085B5826085BD85B5816085BD80916E0070
:10065000816080936E0010928100809181008260A1
:1006600080938100809181008160809381008091DE
:1006700080008160809380008091B10084608093CD
:10068000B1008091B00081608093B00080917A00C9
:10069000846080937A0080917A00826080937A00EF
:1006A00080917A00816080937A0080917A008068DE
:1006B00080937A001092C100AAE1B1E02AE231E011
:1006C0008D919D919927FC01EC55FF4F64918057C6
:1006D0009F4FFC0184918823A1F090E0880F991F1F
:1006E000FC01EA57FF4F45915491FC01E458FF4F3C
:1006F000859194918FB7F894FA019081962B90830D
:100700008FBF2A173B07E1F6E0914701F0914801BE
:1007100082E08083E0914301F09144011082E091F6
:100720004501F09146018FEC808310924F01E091DA
:100730004B01F0914C0186E08083E0914901F091FA
:100740004A01808180618083E0914901F0914A01F2
:10075000808188608083E0914901F0914A01808125
:1007600080688083E0914901F0914A0180818F7D0A
:1007700080838AE090E0A0E0B0E080933B0190931A
:100780003C01A0933D01B0933E0140E0E42E40E0E7
:10079000F42E57E0C52ED12C87E391E00E9425016D
:1007A000181619060CF096C01A8219821C821B8238
:1007B0001E821D8270E060E0CE0101960E9445021B
:1007C00029813A8181112BC02115310519F0C90108
:1007D0000E94DC051A8219821E821D821C821B82E5
:1007E0000E94D70097FD23C08F8318860D811E813C
:1007F0000F5F1F4FB801CE0101960E94450288236A
:1008000079F329813A818D819E81BE01695F7F4F95
:10081000820F931F0E942B071E830D83E1CF1E8240
:100820001D826AE271E0C9010E942B07D9CF0981BC
:100830001A8160E070E0CB010115110519F0C801C3
:100840000E94C704709332016093310101151105B4
:1008500019F0C8010E94DC05D0920101C09200018C
:1008600000913101109132018091000190910101BC
:1008700010161106CCF49C0121503109309301016E
:1008800020930001B80161707727880F991FFC0140
:10089000E65EFE4F80810E94D40115950795109366
:1008A000320100933101DCCF009100011091010170
:1008B00017FD10C0F801EE0FFF1FE65EFE4F60E06F
:1008C00080810E94D401015011091093010100930D
:1008D0000001EACF0E9420024B015C0184E6482E11
:1008E000512C612C712C0E942002681979098A0907
:1008F0009B09683E734081059105A8F3F1E04F1A0A
:1009000051086108710828EE820E23E0921EA11C96
:10091000B11C411451046104710429F7E114F1047C
:1009200009F43ACF0E943101882309F435CF0E949F
:10093000000032CFE7E3F1E01382128288EE93E009
:10094000A0E0B0E084839583A683B7838CE091E038
:100950009183808385EC90E09587848784EC90E098
:100960009787868780EC90E0918B808B81EC90E07C
:10097000938B828B82EC90E0958B848B86EC90E05D
:10098000978B868B118E128E138E148E08951F9363
:10099000FC0199278827BC01E89411911032E9F3F2
:1009A000193010F01E30C8F31B3251F01D3249F4DB
:1009B000689406C00E94EE04610F711D811D911D97
:1009C000119110531A30B0F33EF4909580957095C4
:1009D00061957F4F8F4F9F4F1F910895592F482F3B
:1009E000372F262F660F771F881F991F660F771FD7
:1009F000881F991F620F731F841F951F660F771F33
:100A0000881F991F08952F923F924F925F926F9285
:100A10007F928F929F92AF92BF92CF92DF92EF928E
:100A2000FF920F931F93CF93DF93CDB7DEB7CA1B0F
:100A3000DB0B0FB6F894DEBF0FBECDBF09942A883A
:100A4000398848885F846E847D848C849B84AA84E2
:100A5000B984C884DF80EE80FD800C811B81AA816F
:100A6000B981CE0FD11D0FB6F894DEBF0FBECDBF3A
:100A7000ED010895EE0FFF1F0590F491E02D09940C
:100A80000F931F93CF93DF938230910510F482E090
:100A900090E0E091D601F091D70130E020E0B0E0A5
:100AA000A0E0309799F42115310509F44AC0281BBC
:100AB000390B24303105D8F58A819B816115710588
:100AC00089F1FB0193838283FE0111C04081518132
:100AD0000281138148175907E0F04817590799F424
:100AE000109761F012960C93129713961C933296FE
:100AF000CF01DF91CF911F910F9108950093D601FF
:100B00001093D701F4CF2115310551F04217530747
:100B100038F0A901DB019A01BD01DF01F801C1CF65
:100B2000EF01F9CF9093D7018093D601CDCFFE018D
:100B3000E20FF31F81939193225031093983288367
:100B4000D7CF2091D4013091D501232B41F42091AE
:100B50000401309105013093D5012093D4012091F7
:100B60000201309103012115310541F42DB73EB743
:100B70004091060150910701241B350BE091D401EF
:100B8000F091D501E217F307A0F42E1B3F0B2817B5
:100B9000390778F0AC014E5F5F4F2417350748F0F6
:100BA0004E0F5F1F5093D5014093D40181939193D1
:100BB0009FCFF0E0E0E09CCFCF93DF930097E9F088
:100BC000FC01329713821282A091D601B091D70115
:100BD000ED0130E020E01097A1F420813181820FF7
:100BE000931F2091D4013091D5012817390709F0BE
:100BF00061C0F093D501E093D401DF91CF910895C6
:100C0000EA01CE17DF07E8F54A815B819E014115B5
:100C10005105B1F7E901FB83EA8349915991C40F6A
:100C2000D51FEC17FD0761F4808191810296840F36
:100C3000951FE90199838883828193819B838A83AD
:100C4000F0E0E0E012968D919C9113970097B9F532
:100C50002D913C911197CD010296820F931F209107
:100C6000D4013091D5012817390739F6309751F55D
:100C70001092D7011092D601B093D501A093D40160
:100C8000BCCFD383C28340815181840F951FC81785
:100C9000D90761F44E5F5F4F88819981480F591FD2
:100CA000518340838A819B819383828321153105FF
:100CB00009F0B0CFF093D701E093D6019ECFFD01AC
:100CC000DC01C0CF13821282D7CFB0E0A0E0EBE608
:100CD000F6E00C9405058C01009751F4CB010E94BD
:100CE00040058C01C801CDB7DEB7E0E10C942105C9
:100CF000FC01E60FF71F9C0122503109E217F307B0
:100D000008F49DC0D901CD91DC911197C617D70782
:100D100098F0C530D10530F3CE01049786179707B8
:100D200008F3C61BD70B2297C193D1936D937C9385
:100D3000CF010E94DC05D6CF5B01AC1ABD0A4C0185
:100D40008C0E9D1EA091D601B091D701512C412C43
:100D5000F12CE12C109731F58091D4019091D501BF
:100D60008815990509F05CC04616570608F058C06A
:100D70008091020190910301009741F48DB79EB7D5
:100D80004091060150910701841B950BE817F90764
:100D900008F055C0F093D501E093D401F9017183B7
:100DA0006083A0CF8D919C91119712966C901297B1
:100DB00013967C901397A815B90559F56C0142E07C
:100DC000C40ED11CCA14DB0420F1AC014A195B0922
:100DD000DA011296159780F0628273825183408304
:100DE000D9016D937C93E114F10471F0D70113964E
:100DF000FC93EE93129776CF22968C0F9D1FF901EC
:100E000091838083F301EFCFF093D701E093D60174
:100E100069CF4816590608F42C017D01D3019ACFF9
:100E2000CB010E9440057C01009749F0AE01B8015A
:100E30000E942207C8010E94DC05870153CF10E001
:100E400000E050CFFB01DC0102C001900D92415047
:100E50005040D8F70895FB01DC0101900D9200206D
:080E6000E1F70895F894FFCFBB
:100E680007000000D801800000000000670187002B
:100E7800B400B4012501C3001701060007000800EB
:0C0E880009000A000B000C000D00000027
:00000001FF
