:100000000C945C000C9479000C9479000C947900A9
:100010000C9479000C9479000C9479000C9479007C
:100020000C9479000C9479000C9479000C9479006C
:100030000C9479000C9479000C9479000C9479005C
:100040000C94EC000C9479000C9479000C947900D9
:100050000C9479000C9479000C9479000C9479003C
:100060000C9479000C947900000000080002010053
:100070000003040700000000000000000000000072
:10008000250028002B0000000000240027002A0083
:10009000040404040404040402020202020203032E
:1000A0000303030301020408102040800102040836
:1000B000102001020408102011241FBECFEFD8E049
:1000C000DEBFCDBF11E0A0E0B1E0EEE2F6E002C09D
:1000D00005900D92A431B107D9F721E0A4E1B1E078
:1000E00001C01D92AD31B207E1F70E9436010C94B8
:1000F00015030C94000090E0FC01E859FF4F249197
:10010000FC01EC55FF4F3491FC01E057FF4FE491A7
:10011000EE23C9F0222339F0233001F1A8F4213075
:1001200019F1223029F1F0E0EE0FFF1FE458FF4FE4
:10013000A591B4918FB7F894EC91611126C03095D8
:100140003E233C938FBF08952730A9F02830C9F093
:10015000243049F7809180008F7D03C0809180001A
:100160008F7780938000DFCF84B58F7784BDDBCF1E
:1001700084B58F7DFBCF8091B0008F778093B000E6
:10018000D2CF8091B0008F7DF9CF3E2BDACF3FB731
:10019000F8948091190190911A01A0911B01B091DE
:1001A0001C0126B5A89B05C02F3F19F00196A11D83
:1001B000B11D3FBFBA2FA92F982F8827BC01CD01B1
:1001C000620F711D811D911D42E0660F771F881F10
:1001D000991F4A95D1F708951F920F920FB60F926B
:1001E00011242F933F938F939F93AF93BF9380914D
:1001F000150190911601A0911701B091180130914D
:10020000140123E0230F2D3758F50196A11DB11DD0
:10021000209314018093150190931601A093170168
:10022000B09318018091190190911A01A0911B01BE
:10023000B0911C010196A11DB11D809319019093ED
:100240001A01A0931B01B0931C01BF91AF919F9124
:100250008F913F912F910F900FBE0F901F90189587
:1002600026E8230F0296A11DB11DD2CF789484B544
:10027000826084BD84B5816084BD85B5826085BDA2
:1002800085B5816085BD80916E00816080936E0030
:100290001092810080918100826080938100809122
:1002A00081008160809381008091800081608093D3
:1002B00080008091B10084608093B1008091B00093
:1002C00081608093B00080917A00846080937A008E
:1002D00080917A00826080937A0080917A008160B8
:1002E00080937A0080917A00806880937A001092DF
:1002F000C10024E131E0C4E0D1E0899199919927CE
:10030000FC01EC55FF4F449180579F4FFC018491B5
:10031000882399F090E0880F991FFC01EA57FF4F5E
:10032000A591B491FC01E458FF4F859194918FB74A
:10033000F894EC91E42BEC938FBF2C173D07E9F672
:1003400080E480937C0080917A00806480937A00BE
:1003500080917A0086FDFCCF8091780060917900D1
:10036000762F682F072E000C880B990B61157105ED
:100370008105910511F00E94A90238E0432E512C0D
:10038000612C712C00E010E024E0E22E21E0F22E3E
:10039000F7018081F2E0EF0EF11C60E00E947B002B
:1003A000CE15DF05A9F70E945A02A30192010E940F
:1003B000B202660F771FFB01EC5FFE4F61E08081A8
:1003C0000E947B000E94C7004B015C0198EEC92E81
:1003D00093E0D92EE12CF12C0E94C700681979090D
:1003E0008A099B09683E734081059105A8F321E0C5
:1003F000C21AD108E108F10888EE880E83E0981E41
:10040000A11CB11CC114D104E104F10429F70115A8
:10041000110509F4B9CF0E940000B6CF8F929F92C8
:10042000AF92BF92CF92DF92EF92FF92CF93DF9382
:10043000EC01688179818A819B8161157105810553
:10044000910521F464E279ED8BE597E02DE133EF3E
:1004500041E050E00E94B20249015A019B01AC0107
:10046000A7EAB1E40E94D1026B017C01ACEEB4EFCB
:10047000A50194010E94DF02C60ED71EE81EF91ED8
:10048000F7FE06C081E0C81AD108E10880E8F80A42
:10049000C882D982EA82FB82C701B6019F77DF91C9
:1004A000CF91FF90EF90DF90CF90BF90AF909F9053
:1004B0008F9008958F929F92AF92BF92CF92DF92CA
:1004C000EF92FF9260910001709101018091020111
:1004D00090910301611571058105910521F464E294
:1004E00079ED8BE597E02DE133EF41E050E00E949C
:1004F000B20249015A019B01AC01A7EAB1E40E9492
:10050000D1026B017C01ACEEB4EFA50194010E9415
:10051000DF02C60ED71EE81EF91EF7FE06C081E0F8
:10052000C81AD108E10880E8F80AC0920001D09208
:100530000101E0920201F0920301C701B6019F7729
:10054000FF90EF90DF90CF90BF90AF909F908F90F3
:1005500008956093000170930101809302019093CC
:1005600003010895052E97FB1EF400940E94C90212
:1005700057FD07D00E94E40207FC03D04EF40C9410
:10058000C90250954095309521953F4F4F4F5F4F91
:10059000089590958095709561957F4F8F4F9F4FEF
:1005A00008950E940603A59F900DB49F900DA49FEF
:1005B000800D911D11240895B7FF0C94D1020E9463
:1005C000D102821B930B0895A1E21A2EAA1BBB1B1A
:1005D000FD010DC0AA1FBB1FEE1FFF1FA217B3070F
:1005E000E407F50720F0A21BB30BE40BF50B661F25
:1005F000771F881F991F1A9469F7609570958095E9
:1006000090959B01AC01BD01CF010895A29FB0015F
:10061000B39FC001A39F700D811D1124911DB29F36
:0E062000700D811D1124911D0895F894FFCFD7
:10062E000100000006000700080009000A000B0088
:04063E000C000D009F
:00000001FF
