:100000000C945D000C9485000C9485000C94850084
:100010000C9485000C9485000C9485000C9485004C
:100020000C9485000C9485000C9485000C9485003C
:100030000C9485000C9485000C9485000C9485002C
:100040000C9479020C9485000C9447020C942102C4
:100050000C9485000C9485000C9485000C9485000C
:100060000C9485000C9485000000000024002700FB
:100070002A0000000000250028002B0004040404CE
:100080000404040402020202020203030303030342
:10009000010204081020408001020408102001021F
:1000A00004081020000000080002010000030407FB
:1000B00000000000000000005F0411241FBECFEF0D
:1000C000D8E0DEBFCDBF21E0AAE2B1E001C01D92C1
:1000D000A63DB207E1F711E0A0E0B1E0E2EFFDE0FC
:1000E00002C005900D92AA32B107D9F710E0CDE514
:1000F000D0E004C02197FE010E94FF04CC35D10757
:10010000C9F70E94C3020C94F7060C940000AF924A
:10011000BF92CF92DF92EF92FF920F931F93CF93F4
:10012000DF936C017B018B01040F151FEB015E0156
:10013000AE18BF08C017D10759F06991D601ED91EB
:10014000FC910190F081E02DC6010995892B79F78A
:10015000C501DF91CF911F910F91FF90EF90DF903C
:10016000CF90BF90AF900895FC01538D448D252F03
:1001700030E0842F90E0821B930B541710F0CF9641
:10018000089501970895FC01918D828D981761F073
:10019000A28DAE0FBF2FB11D5D968C91928D9F5F8A
:1001A0009F73928F90E008958FEF9FEF08952FB780
:1001B000F8948091310190913201A0913301B09176
:1001C00034012FBF80933D0190933E01A0933F01E6
:1001D000B093400185E391E00E94C30097FF26C0E1
:1001E0002FB7F8948091310190913201A0913301A1
:1001F000B09134012FBF40913D0150913E0160917B
:100200003F0170914001841B950BA60BB70B4091E9
:10021000390150913A0160913B0170913C01841782
:100220009507A607B707B0F28FEF9FEF0895FC017F
:10023000918D828D981731F0828DE80FF11D858D9B
:1002400090E008958FEF9FEF0895FC01918D228D2E
:10025000892F90E0805C9F4F821B91098F739927B3
:10026000089585E391E00E94250121E0892B09F49E
:1002700020E0822F089580E090E0892B29F00E94F1
:10028000310181110C9400000895FC01A48DA80F88
:10029000B92FB11DA35ABF4F2C91848D90E00196C8
:1002A0008F739927848FA689B7892C93A089B189E8
:1002B0008C91837080648C93938D848D981306C089
:1002C0000288F389E02D80818F7D80830895EF92ED
:1002D000FF920F931F93CF93DF93EC0181E0888F00
:1002E0009B8D8C8D98131AC0E889F989808185FFD0
:1002F00015C09FB7F894EE89FF896083E889F98972
:1003000080818370806480839FBF81E090E0DF9173
:10031000CF911F910F91FF90EF900895F62E0B8DC6
:1003200010E00F5F1F4F0F731127E02E8C8D8E1181
:100330000CC00FB607FCFACFE889F989808185FFE8
:10034000F5CFCE010E944501F1CFEB8DEC0FFD2FD3
:10035000F11DE35AFF4FF0829FB7F8940B8FEA89A3
:10036000FB8980818062CFCFCF93DF93EC01888DB2
:100370008823B9F0AA89BB89E889F9898C9185FD20
:1003800003C0808186FD0DC00FB607FCF7CF8C91AE
:1003900085FFF2CF808185FFEDCFCE010E94450120
:1003A000E9CFDF91CF9108953FB7F89480912B0169
:1003B00090912C01A0912D01B0912E0126B5A89B02
:1003C00005C02F3F19F00196A11DB11D3FBFBA2FE7
:1003D000A92F982F8827BC01CD01620F711D811DA7
:1003E000911D42E0660F771F881F991F4A95D1F72C
:1003F00008950F931F93CF93DF93EC018881998128
:10040000009759F02A813B812617370730F081E0A9
:10041000DF91CF911F910F9108958B016F5F7F4FF7
:100420000E942A06009759F0998388831B830A83C8
:100430002C813D81232B59F7FC011082E8CF80E00D
:10044000E7CF1F920F920FB60F9211242F933F9375
:100450004F935F936F937F938F939F93AF93BF93CC
:10046000EF93FF9385E391E00E944501FF91EF91A7
:10047000BF91AF919F918F917F916F915F914F91BC
:100480003F912F910F900FBE0F901F9018951F92C4
:100490000F920FB60F9211242F938F939F93EF9388
:1004A000FF93E0914501F09146018081E0914B017D
:1004B000F0914C0182FD1BC0908180914E018F5FB5
:1004C0008F7320914F01821741F0E0914E01F0E0CF
:1004D000EB5CFE4F958F80934E01FF91EF919F91C2
:1004E0008F912F910F900FBE0F901F9018958081C4
:1004F000F4CF1F920F920FB60F9211242F933F93B8
:100500008F939F93AF93BF9380913101909132016C
:10051000A0913301B091340130912A0123E0230FDF
:100520002D3758F50196A11DB11D20932A01809306
:10053000310190933201A0933301B0933401809143
:100540002B0190912C01A0912D01B0912E010196CB
:10055000A11DB11D80932B0190932C01A0932D011F
:10056000B0932E01BF91AF919F918F913F912F91A9
:100570000F900FBE0F901F90189526E8230F02963C
:10058000A11DB11DD2CFCF93DF93CDB7DEB7289792
:100590000FB6F894DEBF0FBECDBF789484B58260ED
:1005A00084BD84B5816084BD85B5826085BD85B517
:1005B000816085BD80916E00816080936E00109295
:1005C0008100809181008260809381008091810010
:1005D00081608093810080918000816080938000A1
:1005E0008091B10084608093B1008091B0008160FF
:1005F0008093B00080917A00846080937A0080912B
:100600007A00826080937A0080917A008160809382
:100610007A0080917A00806880937A001092C100FD
:10062000A8E1B1E028E231E08D919D919927FC018C
:10063000E057FF4F649184589F4FFC0184918823B9
:10064000A1F090E0880F991FFC01E859FF4F4591F8
:100650005491FC01EE58FF4F859194918FB7F89417
:10066000FA019081962B90838FBF2A173B07E1F602
:10067000E0914501F091460182E08083E0914101E3
:10068000F09142011082E0914301F09144018FEC1E
:10069000808310924D01E0914901F0914A0186E07A
:1006A0008083E0914701F0914801808180618083DF
:1006B000E0914701F0914801808188608083E0915A
:1006C0004701F0914801808180688083E091470173
:1006D000F091480180818F7D808384E690E0A0E0E6
:1006E000B0E08093390190933A01A0933B01B0931D
:1006F0003C0100E010E085E391E00E94250118161E
:1007000019060CF08AC01A8219821C821B821E8272
:100710001D8270E060E0CE0101960E94F9012981FE
:100720003A8181112CC02115310519F0C9010E94AF
:10073000A1051A8219821E821D821C821B820E94C0
:10074000D70097FD24C08F831886ED80FE80FFEFD1
:10075000EF1AFF0AB701CE0101960E94F901882322
:1007600071F329813A818D819E81BE01695F7F4F3E
:10077000820F931F0E94F006FE82ED82E0CF1E8260
:100780001D8268E271E0C9010E94F006D8CFC980DD
:10079000DA8060E070E0CB01C114D10419F0C60129
:1007A0000E948C047B017093300160932F01C1146F
:1007B000D10419F0C6010E94A105F701EE0FFF1F39
:1007C000E85EFE4F808191819927FC01EC55FF4F37
:1007D0002491FC01E057FF4F3491FC01E458FF4F96
:1007E000E491EE23D1F0222359F0233009F450C0D4
:1007F00008F043C0213009F451C0223009F452C03E
:10080000F0E0EE0FFF1FEE58FF4FA591B4918FB7A8
:10081000F894EC913E2B3C938FBF0E94D4014B0186
:100820005C0184E6C82ED12CE12CF12C0E94D4016D
:10083000681979098A099B09683E73408105910509
:10084000A8F321E0C21AD108E108F10888EE880E69
:1008500083E0981EA11CB11CC114D104E104F10471
:1008600029F70115110509F446CF0E9431018823AB
:1008700009F441CF0E9400003ECF2730B1F028306C
:10088000D1F0243009F0BCCF809180008F7D03C06F
:10089000809180008F7780938000B2CF84B58F776E
:1008A00084BDAECF84B58F7DFBCF8091B0008F77B4
:1008B0008093B000A5CF8091B0008F7DF9CFE5E3A4
:1008C000F1E01382128288EE93E0A0E0B0E084832E
:1008D0009583A683B7838AE091E09183808385EC3A
:1008E00090E09587848784EC90E09787868780ECFA
:1008F00090E0918B808B81EC90E0938B828B82ECEB
:1009000090E0958B848B86EC90E0978B868B118E94
:10091000128E138E148E08951F93FC019927882739
:10092000BC01E89411911032E9F3193010F01E3037
:10093000C8F31B3251F01D3249F4689406C00E947E
:10094000B304610F711D811D911D119110531A3057
:10095000B0F33EF490958095709561957F4F8F4FE1
:100960009F4F1F910895592F482F372F262F660F1D
:10097000771F881F991F660F771F881F991F620FA7
:10098000731F841F951F660F771F881F991F089577
:100990002F923F924F925F926F927F928F929F928F
:1009A000AF92BF92CF92DF92EF92FF920F931F937D
:1009B000CF93DF93CDB7DEB7CA1BDB0B0FB6F8942E
:1009C000DEBF0FBECDBF09942A88398848885F846E
:1009D0006E847D848C849B84AA84B984C884DF80DF
:1009E000EE80FD800C811B81AA81B981CE0FD11DC3
:1009F0000FB6F894DEBF0FBECDBFED010895EE0F28
:100A0000FF1F0590F491E02D09940F931F93CF934E
:100A1000DF938230910510F482E090E0E091D40100
:100A2000F091D50130E020E0B0E0A0E0309799F4FB
:100A30002115310509F44AC0281B390B2430310532
:100A4000D8F58A819B816115710589F1FB0193833A
:100A50008283FE0111C040815181028113814817B8
:100A60005907E0F04817590799F4109761F012966A
:100A70000C93129713961C933296CF01DF91CF916E
:100A80001F910F9108950093D4011093D501F4CFD5
:100A90002115310551F04217530738F0A901DB0148
:100AA0009A01BD01DF01F801C1CFEF01F9CF9093A9
:100AB000D5018093D401CDCFFE01E20FF31F8193C6
:100AC00091932250310939832883D7CF2091D201C5
:100AD0003091D301232B41F4209102013091030185
:100AE0003093D3012093D201209100013091010174
:100AF0002115310541F42DB73EB7409104015091C5
:100B00000501241B350BE091D201F091D301E217CE
:100B1000F307A0F42E1B3F0B2817390778F0AC0120
:100B20004E5F5F4F2417350748F04E0F5F1F5093FD
:100B3000D3014093D201819391939FCFF0E0E0E005
:100B40009CCFCF93DF930097E9F0FC01329713829B
:100B50001282A091D401B091D501ED0130E020E0E6
:100B60001097A1F420813181820F931F2091D2012F
:100B70003091D3012817390709F061C0F093D301F0
:100B8000E093D201DF91CF910895EA01CE17DF07FC
:100B9000E8F54A815B819E0141155105B1F7E901F4
:100BA000FB83EA8349915991C40FD51FEC17FD07C8
:100BB00061F4808191810296840F951FE9019983E8
:100BC0008883828193819B838A83F0E0E0E01296A0
:100BD0008D919C9113970097B9F52D913C911197A8
:100BE000CD010296820F931F2091D2013091D30143
:100BF0002817390739F6309751F51092D501109220
:100C0000D401B093D301A093D201BCCFD383C283CC
:100C100040815181840F951FC817D90761F44E5F39
:100C20005F4F88819981480F591F518340838A8182
:100C30009B81938382832115310509F0B0CFF09316
:100C4000D501E093D4019ECFFD01DC01C0CF13821A
:100C50001282D7CFB0E0A0E0E0E3F6E00C94CA0443
:100C60008C01009751F4CB010E9405058C01C8014D
:100C7000CDB7DEB7E0E10C94E604FC01E60FF71F08
:100C80009C0122503109E217F30708F49DC0D901F5
:100C9000CD91DC911197C617D70798F0C530D105D3
:100CA00030F3CE0104978617970708F3C61BD70BBE
:100CB0002297C193D1936D937C93CF010E94A1059C
:100CC000D6CF5B01AC1ABD0A4C018C0E9D1EA091C3
:100CD000D401B091D501512C412CF12CE12C10976D
:100CE00031F58091D2019091D3018815990509F0D1
:100CF0005CC04616570608F058C0809100019091DC
:100D00000101009741F48DB79EB7409104015091C5
:100D10000501841B950BE817F90708F055C0F093FF
:100D2000D301E093D201F90171836083A0CF8D914B
:100D30009C91119712966C90129713967C90139732
:100D4000A815B90559F56C0142E0C40ED11CCA14AE
:100D5000DB0420F1AC014A195B09DA011296159700
:100D600080F06282738251834083D9016D937C93BA
:100D7000E114F10471F0D7011396FC93EE931297EE
:100D800076CF22968C0F9D1FF90191838083F3010A
:100D9000EFCFF093D501E093D40169CF48165906FF
:100DA00008F42C017D01D3019ACFCB010E940505E7
:100DB0007C01009749F0AE01B8010E94E706C80126
:100DC0000E94A105870153CF10E000E050CFFB0146
:100DD000DC0102C001900D9241505040D8F70895B7
:100DE000FB01DC0101900D920020E1F70895F894D9
:020DF000FFCF33
:100DF2000000D60180000000000067018700B400F7
:100E0200B4012501C300170106000700080009000C
:0A0E12000A000B000C000D000000A8
:00000001FF
