:100000000C945D000C9485000C9485000C94850084
:100010000C9485000C9485000C9485000C9485004C
:100020000C9485000C9485000C9485000C9485003C
:100030000C9485000C9485000C9485000C9485002C
:100040000C9438020C9485000C9406020C94E00188
:100050000C9485000C9485000C9485000C9485000C
:100060000C9485000C94850000000008000201003B
:100070000003040700000000000000000000000072
:10008000250028002B0000000000240027002A0083
:10009000040404040404040402020202020203032E
:1000A0000303030301020408102040800102040836
:1000B0001020010204081020940311241FBECFEF6A
:1000C000D8E0DEBFCDBF11E0A0E0B1E0E2E9F7E0AB
:1000D00002C005900D92A232B107D9F721E0A2E249
:1000E000B1E001C01D92A33DB207E1F710E0CDE5FC
:1000F000D0E004C02197FE010E94C103CC35D10796
:10010000C9F70E9482020C94C7030C940000AF92BE
:10011000BF92CF92DF92EF92FF920F931F93CF93F4
:10012000DF936C017B018B01040F151FEB015E0156
:10013000AE18BF08C017D10759F06991D601ED91EB
:10014000FC910190F081E02DC6010995892B79F78A
:10015000C501DF91CF911F910F91FF90EF90DF903C
:10016000CF90BF90AF900895FC01538D448D252F03
:1001700030E0842F90E0821B930B541710F0CF9641
:10018000089501970895FC01918D828D981761F073
:10019000A28DAE0FBF2FB11D5D968C91928D9F5F8A
:1001A0009F73928F90E008958FEF9FEF0895FC0169
:1001B000918D828D981731F0828DE80FF11D858D1C
:1001C00090E008958FEF9FEF0895FC01918D228DAF
:1001D000892F90E0805C9F4F821B91098F73992734
:1001E000089587E291E00E94E50021E0892B09F45F
:1001F00020E0822F089580E090E0892B29F00E9472
:10020000F10081110C9400000895FC01A48DA80F49
:10021000B92FB11DA35ABF4F2C91848D90E0019648
:100220008F739927848FA689B7892C93A089B18968
:100230008C91837080648C93938D848D981306C009
:100240000288F389E02D80818F7D80830895EF926D
:10025000FF920F931F93CF93DF93EC0181E0888F80
:100260009B8D8C8D98131AC0E889F989808185FF50
:1002700015C09FB7F894EE89FF896083E889F989F2
:1002800080818370806480839FBF81E090E0DF91F4
:10029000CF911F910F91FF90EF900895F62E0B8D47
:1002A00010E00F5F1F4F0F731127E02E8C8D8E1102
:1002B0000CC00FB607FCFACFE889F989808185FF69
:1002C000F5CFCE010E940501F1CFEB8DEC0FFD2F94
:1002D000F11DE35AFF4FF0829FB7F8940B8FEA8924
:1002E000FB8980818062CFCFCF93DF93EC01888D33
:1002F0008823B9F0AA89BB89E889F9898C9185FDA1
:1003000003C0808186FD0DC00FB607FCF7CF8C912E
:1003100085FFF2CF808185FFEDCFCE010E940501E0
:10032000E9CFDF91CF91089590E0FC01E859FF4FAC
:100330002491FC01EC55FF4F3491FC01E057FF4F35
:10034000E491EE23C9F0222339F0233001F1A8F41F
:10035000213019F1223029F1F0E0EE0FFF1FE458AF
:10036000FF4FA591B4918FB7F894EC91611126C01D
:1003700030953E233C938FBF08952730A9F0283055
:10038000C9F0243049F7809180008F7D03C08091AF
:1003900080008F7780938000DFCF84B58F7784BD16
:1003A000DBCF84B58F7DFBCF8091B0008F778093BA
:1003B000B000D2CF8091B0008F7DF9CF3E2BDACF45
:1003C0001F920F920FB60F9211242F933F934F93CA
:1003D0005F936F937F938F939F93AF93BF93EF93AD
:1003E000FF9387E291E00E940501FF91EF91BF9199
:1003F000AF919F918F917F916F915F914F913F91BD
:100400002F910F900FBE0F901F9018951F920F9273
:100410000FB60F9211242F938F939F93EF93FF9317
:10042000E0913701F09138018081E0913D01F09138
:100430003E0182FD1BC09081809140018F5F8F73D0
:1004400020914101821741F0E0914001F0E0E95D27
:10045000FE4F958F80934001FF91EF919F918F9177
:100460002F910F900FBE0F901F9018958081F4CFA1
:100470001F920F920FB60F9211242F933F938F93D9
:100480009F93AF93BF938091C4019091C501A091B8
:10049000C601B091C7013091260123E0230F2D370B
:1004A00058F50196A11DB11D209326018093C4012A
:1004B0009093C501A093C601B093C701809122011A
:1004C00090912301A0912401B09125010196A11DD5
:1004D000B11D8093220190932301A0932401B09336
:1004E0002501BF91AF919F918F913F912F910F90D7
:1004F0000FBE0F901F90189526E8230F0296A11D9E
:10050000B11DD2CF789484B5826084BD84B58160FA
:1005100084BD85B5826085BD85B5816085BD8091CE
:100520006E00816080936E00109281008091810046
:10053000826080938100809181008160809381003E
:10054000809180008160809380008091B100846000
:100550008093B1008091B00081608093B000809161
:100560007A00846080937A0080917A008260809320
:100570007A0080917A00816080937A0080917A007D
:10058000806880937A001092C10022E231E0C2E1DB
:10059000D1E0899199919927FC01EC55FF4F449145
:1005A00080579F4FFC018491882399F090E0880F39
:1005B000991FFC01EA57FF4FA591B491FC01E45843
:1005C000FF4F859194918FB7F894EC91E42BEC93C5
:1005D0008FBF2C173D07E9F6E0913701F091380104
:1005E00082E08083E0913301F09134011082E09148
:1005F0003501F09136018FEC808310923F01E0913C
:100600003B01F0913C0186E08083E0913901F0915B
:100610003A01808180618083E0913901F0913A0153
:10062000808188608083E0913901F0913A01808176
:1006300080688083E0913901F0913A0180818F7D5B
:1006400080837724739490E0C92E90E0D92E8FB7E1
:10065000F8948090C4019090C501A090C601B0901C
:10066000C7018FBF8092CF019092D001A092D1019B
:10067000B092D2018091CB019091CC01A091CD019B
:10068000B091CE01A5019401281B390B4A0B5B0BDD
:10069000DA01C901883E9340A105B1057CF102E170
:1006A00011E0F80180810E5F1F4F60E00E9494010D
:1006B0000C171D07B1F71091CA0117251093CA0135
:1006C000E090C801F090C901F701EE0FFF1FEE5E48
:1006D000FE4F612F80810E9494018092CB01909205
:1006E000CC01A092CD01B092CE01112339F0FFEFE1
:1006F000EF1AFF0AF092C901E092C8018091C80187
:100700009091C901079721F41092C9011092C80174
:10071000C114D10409F49BCF0E94F100882309F48D
:1007200096CF0E94000093CFE7E2F1E0138212829D
:1007300088EE93E0A0E0B0E084839583A683B7833E
:1007400084E091E09183808385EC90E095878487B5
:1007500084EC90E09787868780EC90E0918B808B8B
:1007600081EC90E0938B828B82EC90E0958B848B74
:1007700086EC90E0978B868B118E128E138E148EE2
:100780000895EE0FFF1F0590F491E02D0994F89461
:02079000FFCF99
:100792000000000027018700B4007401E500C300D7
:1007A200D70006000700080009000A000B000C0031
:0207B2000D0038
:00000001FF
